{
  "_format": "hh-sol-artifact-1",
  "contractName": "NFT",
  "sourceName": "contracts/NFT.sol",
  "abi": [
    {
      "inputs": [
        {
          "internalType": "address",
          "name": "marketplaceAddress",
          "type": "address"
        }
      ],
      "stateMutability": "nonpayable",
      "type": "constructor"
    },
    {
      "anonymous": false,
      "inputs": [
        {
          "indexed": true,
          "internalType": "address",
          "name": "owner",
          "type": "address"
        },
        {
          "indexed": true,
          "internalType": "address",
          "name": "approved",
          "type": "address"
        },
        {
          "indexed": true,
          "internalType": "uint256",
          "name": "tokenId",
          "type": "uint256"
        }
      ],
      "name": "Approval",
      "type": "event"
    },
    {
      "anonymous": false,
      "inputs": [
        {
          "indexed": true,
          "internalType": "address",
          "name": "owner",
          "type": "address"
        },
        {
          "indexed": true,
          "internalType": "address",
          "name": "operator",
          "type": "address"
        },
        {
          "indexed": false,
          "internalType": "bool",
          "name": "approved",
          "type": "bool"
        }
      ],
      "name": "ApprovalForAll",
      "type": "event"
    },
    {
      "anonymous": false,
      "inputs": [
        {
          "indexed": true,
          "internalType": "uint256",
          "name": "itemId",
          "type": "uint256"
        },
        {
          "indexed": true,
          "internalType": "address",
          "name": "nftContract",
          "type": "address"
        },
        {
          "indexed": true,
          "internalType": "uint256",
          "name": "tokenId",
          "type": "uint256"
        },
        {
          "indexed": false,
          "internalType": "address",
          "name": "seller",
          "type": "address"
        },
        {
          "indexed": false,
          "internalType": "address",
          "name": "owner",
          "type": "address"
        },
        {
          "indexed": false,
          "internalType": "uint256",
          "name": "price",
          "type": "uint256"
        },
        {
          "indexed": false,
          "internalType": "bool",
          "name": "sold",
          "type": "bool"
        },
        {
          "indexed": false,
          "internalType": "bool",
          "name": "listed",
          "type": "bool"
        },
        {
          "indexed": false,
          "internalType": "uint256",
          "name": "timeItemGotListed",
          "type": "uint256"
        },
        {
          "indexed": false,
          "internalType": "uint256",
          "name": "timeItemGotSold",
          "type": "uint256"
        }
      ],
      "name": "MarketItemCreated",
      "type": "event"
    },
    {
      "anonymous": false,
      "inputs": [
        {
          "indexed": true,
          "internalType": "address",
          "name": "from",
          "type": "address"
        },
        {
          "indexed": true,
          "internalType": "address",
          "name": "to",
          "type": "address"
        },
        {
          "indexed": true,
          "internalType": "uint256",
          "name": "tokenId",
          "type": "uint256"
        }
      ],
      "name": "Transfer",
      "type": "event"
    },
    {
      "inputs": [
        {
          "internalType": "address",
          "name": "to",
          "type": "address"
        },
        {
          "internalType": "uint256",
          "name": "tokenId",
          "type": "uint256"
        }
      ],
      "name": "approve",
      "outputs": [],
      "stateMutability": "nonpayable",
      "type": "function"
    },
    {
      "inputs": [
        {
          "internalType": "address",
          "name": "owner",
          "type": "address"
        }
      ],
      "name": "balanceOf",
      "outputs": [
        {
          "internalType": "uint256",
          "name": "",
          "type": "uint256"
        }
      ],
      "stateMutability": "view",
      "type": "function"
    },
    {
      "inputs": [
        {
          "internalType": "address",
          "name": "nftContract",
          "type": "address"
        },
        {
          "internalType": "uint256",
          "name": "currentTokenId",
          "type": "uint256"
        },
        {
          "internalType": "uint256",
          "name": "itemSize",
          "type": "uint256"
        },
        {
          "internalType": "address",
          "name": "collectionSeller",
          "type": "address"
        }
      ],
      "name": "createCollection",
      "outputs": [],
      "stateMutability": "nonpayable",
      "type": "function"
    },
    {
      "inputs": [
        {
          "internalType": "address",
          "name": "nftContract",
          "type": "address"
        },
        {
          "internalType": "uint256",
          "name": "tokenId",
          "type": "uint256"
        },
        {
          "internalType": "uint256",
          "name": "price",
          "type": "uint256"
        }
      ],
      "name": "createMarketItem",
      "outputs": [],
      "stateMutability": "payable",
      "type": "function"
    },
    {
      "inputs": [
        {
          "internalType": "address",
          "name": "nftContract",
          "type": "address"
        },
        {
          "internalType": "uint256",
          "name": "itemId",
          "type": "uint256"
        }
      ],
      "name": "createMarketSale",
      "outputs": [],
      "stateMutability": "payable",
      "type": "function"
    },
    {
      "inputs": [
        {
          "internalType": "string",
          "name": "IPFStokenURI",
          "type": "string"
        }
      ],
      "name": "createToken",
      "outputs": [
        {
          "internalType": "uint256",
          "name": "",
          "type": "uint256"
        }
      ],
      "stateMutability": "nonpayable",
      "type": "function"
    },
    {
      "inputs": [
        {
          "internalType": "string",
          "name": "IPFStokenURI",
          "type": "string"
        },
        {
          "internalType": "uint256",
          "name": "numberInACollection",
          "type": "uint256"
        }
      ],
      "name": "createTokens",
      "outputs": [
        {
          "internalType": "uint256[]",
          "name": "",
          "type": "uint256[]"
        }
      ],
      "stateMutability": "nonpayable",
      "type": "function"
    },
    {
      "inputs": [
        {
          "internalType": "uint256",
          "name": "id",
          "type": "uint256"
        }
      ],
      "name": "fetchCollectionById",
      "outputs": [
        {
          "components": [
            {
              "internalType": "uint256",
              "name": "collectionId",
              "type": "uint256"
            },
            {
              "internalType": "uint256",
              "name": "startTokenId",
              "type": "uint256"
            },
            {
              "internalType": "uint256",
              "name": "collectionSize",
              "type": "uint256"
            },
            {
              "internalType": "address",
              "name": "seller",
              "type": "address"
            },
            {
              "internalType": "address",
              "name": "nftContract",
              "type": "address"
            }
          ],
          "internalType": "struct NFTMarket.Collection",
          "name": "",
          "type": "tuple"
        }
      ],
      "stateMutability": "view",
      "type": "function"
    },
    {
      "inputs": [],
      "name": "fetchCollections",
      "outputs": [
        {
          "components": [
            {
              "internalType": "uint256",
              "name": "collectionId",
              "type": "uint256"
            },
            {
              "internalType": "uint256",
              "name": "startTokenId",
              "type": "uint256"
            },
            {
              "internalType": "uint256",
              "name": "collectionSize",
              "type": "uint256"
            },
            {
              "internalType": "address",
              "name": "seller",
              "type": "address"
            },
            {
              "internalType": "address",
              "name": "nftContract",
              "type": "address"
            }
          ],
          "internalType": "struct NFTMarket.Collection[]",
          "name": "",
          "type": "tuple[]"
        }
      ],
      "stateMutability": "view",
      "type": "function"
    },
    {
      "inputs": [],
      "name": "fetchItemsCreated",
      "outputs": [
        {
          "components": [
            {
              "internalType": "uint256",
              "name": "itemId",
              "type": "uint256"
            },
            {
              "internalType": "address",
              "name": "nftContract",
              "type": "address"
            },
            {
              "internalType": "uint256",
              "name": "tokenId",
              "type": "uint256"
            },
            {
              "internalType": "address payable",
              "name": "seller",
              "type": "address"
            },
            {
              "internalType": "address payable",
              "name": "owner",
              "type": "address"
            },
            {
              "internalType": "uint256",
              "name": "price",
              "type": "uint256"
            },
            {
              "internalType": "bool",
              "name": "sold",
              "type": "bool"
            },
            {
              "internalType": "bool",
              "name": "listed",
              "type": "bool"
            },
            {
              "internalType": "uint256",
              "name": "timeItemGotListed",
              "type": "uint256"
            },
            {
              "internalType": "uint256",
              "name": "timeItemGotSold",
              "type": "uint256"
            }
          ],
          "internalType": "struct NFTMarket.MarketItem[]",
          "name": "",
          "type": "tuple[]"
        }
      ],
      "stateMutability": "view",
      "type": "function"
    },
    {
      "inputs": [
        {
          "internalType": "uint256",
          "name": "_tokenId",
          "type": "uint256"
        }
      ],
      "name": "fetchMarketItemHistory",
      "outputs": [
        {
          "components": [
            {
              "internalType": "uint256",
              "name": "itemId",
              "type": "uint256"
            },
            {
              "internalType": "address",
              "name": "nftContract",
              "type": "address"
            },
            {
              "internalType": "uint256",
              "name": "tokenId",
              "type": "uint256"
            },
            {
              "internalType": "address payable",
              "name": "seller",
              "type": "address"
            },
            {
              "internalType": "address payable",
              "name": "owner",
              "type": "address"
            },
            {
              "internalType": "uint256",
              "name": "price",
              "type": "uint256"
            },
            {
              "internalType": "bool",
              "name": "sold",
              "type": "bool"
            },
            {
              "internalType": "bool",
              "name": "listed",
              "type": "bool"
            },
            {
              "internalType": "uint256",
              "name": "timeItemGotListed",
              "type": "uint256"
            },
            {
              "internalType": "uint256",
              "name": "timeItemGotSold",
              "type": "uint256"
            }
          ],
          "internalType": "struct NFTMarket.MarketItem[]",
          "name": "",
          "type": "tuple[]"
        }
      ],
      "stateMutability": "view",
      "type": "function"
    },
    {
      "inputs": [],
      "name": "fetchMarketItems",
      "outputs": [
        {
          "components": [
            {
              "internalType": "uint256",
              "name": "itemId",
              "type": "uint256"
            },
            {
              "internalType": "address",
              "name": "nftContract",
              "type": "address"
            },
            {
              "internalType": "uint256",
              "name": "tokenId",
              "type": "uint256"
            },
            {
              "internalType": "address payable",
              "name": "seller",
              "type": "address"
            },
            {
              "internalType": "address payable",
              "name": "owner",
              "type": "address"
            },
            {
              "internalType": "uint256",
              "name": "price",
              "type": "uint256"
            },
            {
              "internalType": "bool",
              "name": "sold",
              "type": "bool"
            },
            {
              "internalType": "bool",
              "name": "listed",
              "type": "bool"
            },
            {
              "internalType": "uint256",
              "name": "timeItemGotListed",
              "type": "uint256"
            },
            {
              "internalType": "uint256",
              "name": "timeItemGotSold",
              "type": "uint256"
            }
          ],
          "internalType": "struct NFTMarket.MarketItem[]",
          "name": "",
          "type": "tuple[]"
        }
      ],
      "stateMutability": "view",
      "type": "function"
    },
    {
      "inputs": [
        {
          "internalType": "uint256",
          "name": "tokenId",
          "type": "uint256"
        }
      ],
      "name": "getApproved",
      "outputs": [
        {
          "internalType": "address",
          "name": "",
          "type": "address"
        }
      ],
      "stateMutability": "view",
      "type": "function"
    },
    {
      "inputs": [],
      "name": "getListingPrice",
      "outputs": [
        {
          "internalType": "uint256",
          "name": "",
          "type": "uint256"
        }
      ],
      "stateMutability": "view",
      "type": "function"
    },
    {
      "inputs": [
        {
          "internalType": "address",
          "name": "_owner",
          "type": "address"
        }
      ],
      "name": "getTokenIds",
      "outputs": [
        {
          "internalType": "uint256[]",
          "name": "",
          "type": "uint256[]"
        }
      ],
      "stateMutability": "view",
      "type": "function"
    },
    {
      "inputs": [
        {
          "internalType": "address",
          "name": "owner",
          "type": "address"
        },
        {
          "internalType": "address",
          "name": "operator",
          "type": "address"
        }
      ],
      "name": "isApprovedForAll",
      "outputs": [
        {
          "internalType": "bool",
          "name": "",
          "type": "bool"
        }
      ],
      "stateMutability": "view",
      "type": "function"
    },
    {
      "inputs": [],
      "name": "name",
      "outputs": [
        {
          "internalType": "string",
          "name": "",
          "type": "string"
        }
      ],
      "stateMutability": "view",
      "type": "function"
    },
    {
      "inputs": [
        {
          "internalType": "uint256",
          "name": "tokenId",
          "type": "uint256"
        }
      ],
      "name": "ownerOf",
      "outputs": [
        {
          "internalType": "address",
          "name": "",
          "type": "address"
        }
      ],
      "stateMutability": "view",
      "type": "function"
    },
    {
      "inputs": [
        {
          "internalType": "address",
          "name": "nftContract",
          "type": "address"
        },
        {
          "internalType": "uint256",
          "name": "itemId",
          "type": "uint256"
        }
      ],
      "name": "removeMarketSale",
      "outputs": [],
      "stateMutability": "payable",
      "type": "function"
    },
    {
      "inputs": [
        {
          "internalType": "address",
          "name": "from",
          "type": "address"
        },
        {
          "internalType": "address",
          "name": "to",
          "type": "address"
        },
        {
          "internalType": "uint256",
          "name": "tokenId",
          "type": "uint256"
        }
      ],
      "name": "safeTransferFrom",
      "outputs": [],
      "stateMutability": "nonpayable",
      "type": "function"
    },
    {
      "inputs": [
        {
          "internalType": "address",
          "name": "from",
          "type": "address"
        },
        {
          "internalType": "address",
          "name": "to",
          "type": "address"
        },
        {
          "internalType": "uint256",
          "name": "tokenId",
          "type": "uint256"
        },
        {
          "internalType": "bytes",
          "name": "_data",
          "type": "bytes"
        }
      ],
      "name": "safeTransferFrom",
      "outputs": [],
      "stateMutability": "nonpayable",
      "type": "function"
    },
    {
      "inputs": [
        {
          "internalType": "address",
          "name": "operator",
          "type": "address"
        },
        {
          "internalType": "bool",
          "name": "approved",
          "type": "bool"
        }
      ],
      "name": "setApprovalForAll",
      "outputs": [],
      "stateMutability": "nonpayable",
      "type": "function"
    },
    {
      "inputs": [
        {
          "internalType": "bytes4",
          "name": "interfaceId",
          "type": "bytes4"
        }
      ],
      "name": "supportsInterface",
      "outputs": [
        {
          "internalType": "bool",
          "name": "",
          "type": "bool"
        }
      ],
      "stateMutability": "view",
      "type": "function"
    },
    {
      "inputs": [],
      "name": "symbol",
      "outputs": [
        {
          "internalType": "string",
          "name": "",
          "type": "string"
        }
      ],
      "stateMutability": "view",
      "type": "function"
    },
    {
      "inputs": [
        {
          "internalType": "uint256",
          "name": "index",
          "type": "uint256"
        }
      ],
      "name": "tokenByIndex",
      "outputs": [
        {
          "internalType": "uint256",
          "name": "",
          "type": "uint256"
        }
      ],
      "stateMutability": "view",
      "type": "function"
    },
    {
      "inputs": [
        {
          "internalType": "address",
          "name": "owner",
          "type": "address"
        },
        {
          "internalType": "uint256",
          "name": "index",
          "type": "uint256"
        }
      ],
      "name": "tokenOfOwnerByIndex",
      "outputs": [
        {
          "internalType": "uint256",
          "name": "",
          "type": "uint256"
        }
      ],
      "stateMutability": "view",
      "type": "function"
    },
    {
      "inputs": [
        {
          "internalType": "uint256",
          "name": "tokenId",
          "type": "uint256"
        }
      ],
      "name": "tokenURI",
      "outputs": [
        {
          "internalType": "string",
          "name": "",
          "type": "string"
        }
      ],
      "stateMutability": "view",
      "type": "function"
    },
    {
      "inputs": [],
      "name": "totalSupply",
      "outputs": [
        {
          "internalType": "uint256",
          "name": "",
          "type": "uint256"
        }
      ],
      "stateMutability": "view",
      "type": "function"
    },
    {
      "inputs": [
        {
          "internalType": "address",
          "name": "from",
          "type": "address"
        },
        {
          "internalType": "address",
          "name": "to",
          "type": "address"
        },
        {
          "internalType": "uint256",
          "name": "tokenId",
          "type": "uint256"
        }
      ],
      "name": "transferFrom",
      "outputs": [],
      "stateMutability": "nonpayable",
      "type": "function"
    },
    {
      "inputs": [
        {
          "internalType": "address",
          "name": "nftContract",
          "type": "address"
        },
        {
          "internalType": "uint256",
          "name": "itemId",
          "type": "uint256"
        },
        {
          "internalType": "address payable",
          "name": "buyer",
          "type": "address"
        }
      ],
      "name": "transferToBuyer",
      "outputs": [],
      "stateMutability": "payable",
      "type": "function"
    }
  ],
  "bytecode": "0x60806040526658d15e176280006006553480156200001c57600080fd5b5060405162003689380380620036898339810160408190526200003f9162000189565b6040805180820182526009808252684d657461766572736560b81b6020808401918252845180860190955260048552631351551560e21b908501526001600055600580546001600160a01b031916331790558251929392620000a3929190620000e3565b508051620000b990600a906020840190620000e3565b5050601580546001600160a01b0319166001600160a01b03939093169290921790915550620001f8565b828054620000f190620001bb565b90600052602060002090601f01602090048101928262000115576000855562000160565b82601f106200013057805160ff191683800117855562000160565b8280016001018555821562000160579182015b828111156200016057825182559160200191906001019062000143565b506200016e92915062000172565b5090565b5b808211156200016e576000815560010162000173565b6000602082840312156200019c57600080fd5b81516001600160a01b0381168114620001b457600080fd5b9392505050565b600181811c90821680620001d057607f821691505b60208210811415620001f257634e487b7160e01b600052602260045260246000fd5b50919050565b61348180620002086000396000f3fe6080604052600436106101cd5760003560e01c806358eb2df5116100f7578063b88d4fde11610095578063d2d9b4e111610064578063d2d9b4e114610514578063d2ead4cb14610534578063e985e9c514610556578063f064c32e1461059f57600080fd5b8063b88d4fde146104a1578063c23b139e146104c1578063c87b56dd146104d4578063d004b036146104f457600080fd5b806378044ba5116100d157806378044ba51461044657806395d89b4114610459578063a17ee9281461046e578063a22cb4651461048157600080fd5b806358eb2df5146103f35780636352211e1461040657806370a082311461042657600080fd5b806318160ddd1161016f57806342842e0e1161013e57806342842e0e1461037357806345576f9414610393578063485fc31b146103b35780634f6ccce7146103d357600080fd5b806318160ddd146102f157806323b872dd146103065780632af505e2146103265780632f745c591461035357600080fd5b806308bc86b6116101ab57806308bc86b614610261578063095ea7b31461028e5780630f08efe0146102b057806312e85585146102d257600080fd5b806301ffc9a7146101d257806306fdde0314610207578063081812fc14610229575b600080fd5b3480156101de57600080fd5b506101f26101ed366004612ed9565b6105b4565b60405190151581526020015b60405180910390f35b34801561021357600080fd5b5061021c6105c5565b6040516101fe91906131db565b34801561023557600080fd5b50610249610244366004612f8d565b610657565b6040516001600160a01b0390911681526020016101fe565b34801561026d57600080fd5b5061028161027c366004612f48565b6106e4565b6040516101fe91906131a3565b34801561029a57600080fd5b506102ae6102a9366004612dec565b61085f565b005b3480156102bc57600080fd5b506102c5610975565b6040516101fe91906130ec565b3480156102de57600080fd5b506006545b6040519081526020016101fe565b3480156102fd57600080fd5b506012546102e3565b34801561031257600080fd5b506102ae610321366004612cf8565b610b63565b34801561033257600080fd5b50610346610341366004612f8d565b610b94565b6040516101fe91906132c8565b34801561035f57600080fd5b506102e361036e366004612dec565b610bf9565b34801561037f57600080fd5b506102ae61038e366004612cf8565b610c8f565b34801561039f57600080fd5b506102e36103ae366004612f13565b610caa565b3480156103bf57600080fd5b506102ae6103ce366004612e8f565b610cf2565b3480156103df57600080fd5b506102e36103ee366004612f8d565b610d91565b6102ae610401366004612e5a565b610e24565b34801561041257600080fd5b50610249610421366004612f8d565b611171565b34801561043257600080fd5b506102e3610441366004612ca2565b6111e8565b6102ae610454366004612e18565b61126f565b34801561046557600080fd5b5061021c6113e2565b6102ae61047c366004612dec565b6113f1565b34801561048d57600080fd5b506102ae61049c366004612db9565b61159a565b3480156104ad57600080fd5b506102ae6104bc366004612d39565b61165f565b6102ae6104cf366004612dec565b611697565b3480156104e057600080fd5b5061021c6104ef366004612f8d565b611886565b34801561050057600080fd5b5061028161050f366004612ca2565b611891565b34801561052057600080fd5b506102c561052f366004612f8d565b611935565b34801561054057600080fd5b50610549611b1c565b6040516101fe919061309e565b34801561056257600080fd5b506101f2610571366004612cbf565b6001600160a01b039182166000908152600e6020908152604080832093909416825291909152205460ff1690565b3480156105ab57600080fd5b506102c5611c3f565b60006105bf82611e32565b92915050565b6060600980546105d490613345565b80601f016020809104026020016040519081016040528092919081815260200182805461060090613345565b801561064d5780601f106106225761010080835404028352916020019161064d565b820191906000526020600020905b81548152906001019060200180831161063057829003601f168201915b5050505050905090565b600061066282611e57565b6106c85760405162461bcd60e51b815260206004820152602c60248201527f4552433732313a20617070726f76656420717565727920666f72206e6f6e657860448201526b34b9ba32b73a103a37b5b2b760a11b60648201526084015b60405180910390fd5b506000908152600d60205260409020546001600160a01b031690565b606060008267ffffffffffffffff81111561070157610701613407565b60405190808252806020026020018201604052801561072a578160200160208202803683370190505b509050600061073860145490565b60155460405163485fc31b60e01b81526001600160a01b0390911660048201819052602482018390526044820187905233606483015291925063485fc31b90608401600060405180830381600087803b15801561079457600080fd5b505af11580156107a8573d6000803e3d6000fd5b5050505060005b84811015610855576107c5601480546001019055565b6014548382815181106107da576107da6133f1565b602002602001018181525050610809338483815181106107fc576107fc6133f1565b6020026020010151611e74565b61082c83828151811061081e5761081e6133f1565b602002602001015187611fb3565b601554610843906001600160a01b0316600161159a565b8061084d81613380565b9150506107af565b5090949350505050565b600061086a82611171565b9050806001600160a01b0316836001600160a01b031614156108d85760405162461bcd60e51b815260206004820152602160248201527f4552433732313a20617070726f76616c20746f2063757272656e74206f776e656044820152603960f91b60648201526084016106bf565b336001600160a01b03821614806108f457506108f48133610571565b6109665760405162461bcd60e51b815260206004820152603860248201527f4552433732313a20617070726f76652063616c6c6572206973206e6f74206f7760448201527f6e6572206e6f7220617070726f76656420666f7220616c6c000000000000000060648201526084016106bf565b610970838361203e565b505050565b6060600061098260015490565b9050600061098f60025490565b60035461099c9190613302565b90506000808267ffffffffffffffff8111156109ba576109ba613407565b6040519080825280602002602001820160405280156109f357816020015b6109e0612ac0565b8152602001906001900390816109d85790505b50905060005b84811015610b5a576000600781610a118460016132d6565b81526020810191909152604001600020600401546001600160a01b0316148015610a68575060076000610a458360016132d6565b815260208101919091526040016000206006015460ff6101009091041615156001145b15610b48576000610a7a8260016132d6565b6000818152600760208181526040928390208351610140810185528154815260018201546001600160a01b039081169382019390935260028201549481019490945260038101548216606085015260048101549091166080840152600581015460a0840152600681015460ff808216151560c08601526101009182900416151560e085015291810154918301919091526008810154610120830152855192935091859087908110610b2d57610b2d6133f1565b6020908102919091010152610b436001866132d6565b945050505b80610b5281613380565b9150506109f9565b50949350505050565b610b6d33826120ac565b610b895760405162461bcd60e51b81526004016106bf90613240565b610970838383612196565b610b9c612b32565b50600090815260086020908152604091829020825160a0810184528154815260018201549281019290925260028101549282019290925260038201546001600160a01b039081166060830152600490920154909116608082015290565b6000610c04836111e8565b8210610c665760405162461bcd60e51b815260206004820152602b60248201527f455243373231456e756d657261626c653a206f776e657220696e646578206f7560448201526a74206f6620626f756e647360a81b60648201526084016106bf565b506001600160a01b03919091166000908152601060209081526040808320938352929052205490565b6109708383836040518060200160405280600081525061165f565b6000610cba601480546001019055565b6000610cc560145490565b9050610cd13382611e74565b610cdb8184611fb3565b6015546105bf906001600160a01b0316600161159a565b610d00600480546001019055565b6000610d0b60045490565b6040805160a08101825282815260208082019788528183019687526001600160a01b03958616606083019081529886166080830190815260009485526008909152919092209151825594516001820155925160028401555092516003820180549185166001600160a01b0319928316179055915160049091018054919093169116179055565b6000610d9c60125490565b8210610dff5760405162461bcd60e51b815260206004820152602c60248201527f455243373231456e756d657261626c653a20676c6f62616c20696e646578206f60448201526b7574206f6620626f756e647360a01b60648201526084016106bf565b60128281548110610e1257610e126133f1565b90600052602060002001549050919050565b60026000541415610e475760405162461bcd60e51b81526004016106bf90613291565b600260005580610e995760405162461bcd60e51b815260206004820152601c60248201527f5072696365206d757374206265206174206c656173742031207765690000000060448201526064016106bf565b6006543414610ef65760405162461bcd60e51b8152602060048201526024808201527f5072696365206d75737420626520657175616c20746f206c697374696e6720706044820152637269636560e01b60648201526084016106bf565b610f04600380546001019055565b610f12600180546001019055565b6000610f1d60015490565b9050604051806101400160405280828152602001856001600160a01b03168152602001848152602001336001600160a01b0316815260200160006001600160a01b031681526020018381526020016000151581526020016001151581526020014281526020016000815250600760008381526020019081526020016000206000820151816000015560208201518160010160006101000a8154816001600160a01b0302191690836001600160a01b031602179055506040820151816002015560608201518160030160006101000a8154816001600160a01b0302191690836001600160a01b0316021790555060808201518160040160006101000a8154816001600160a01b0302191690836001600160a01b0316021790555060a0820151816005015560c08201518160060160006101000a81548160ff02191690831515021790555060e08201518160060160016101000a81548160ff02191690831515021790555061010082015181600701556101208201518160080155905050836001600160a01b03166323b872dd3330866040518463ffffffff1660e01b81526004016110c99392919061303d565b600060405180830381600087803b1580156110e357600080fd5b505af11580156110f7573d6000803e3d6000fd5b50506040805133815260006020820181905281830187905260608201819052600160808301524260a083015260c082015290518693506001600160a01b038816925084917f6f369afbb70a4a188a6625b97a5cb95dca09619f8b987b62ae287e2879b86f37919081900360e00190a4505060016000555050565b6000818152600b60205260408120546001600160a01b0316806105bf5760405162461bcd60e51b815260206004820152602960248201527f4552433732313a206f776e657220717565727920666f72206e6f6e657869737460448201526832b73a103a37b5b2b760b91b60648201526084016106bf565b60006001600160a01b0382166112535760405162461bcd60e51b815260206004820152602a60248201527f4552433732313a2062616c616e636520717565727920666f7220746865207a65604482015269726f206164647265737360b01b60648201526084016106bf565b506001600160a01b03166000908152600c602052604090205490565b600260005414156112925760405162461bcd60e51b81526004016106bf90613291565b60026000818155838152600760205260409020908101546003909101546001600160a01b031633146113235760405162461bcd60e51b815260206004820152603460248201527f4f6e6c79207468652053656c6c6572206f6620746869732070726f647563742060448201527318d85b881d1c985b9cd9995c881d1a194813919560621b60648201526084016106bf565b6040516323b872dd60e01b81526001600160a01b038516906323b872dd906113539030908690869060040161303d565b600060405180830381600087803b15801561136d57600080fd5b505af1158015611381573d6000803e3d6000fd5b50505060008481526007602052604090206004810180546001600160a01b0386166001600160a01b031990911617905560068101805461ffff1916600117905542600890910155506113d7600280546001019055565b505060016000555050565b6060600a80546105d490613345565b600260005414156114145760405162461bcd60e51b81526004016106bf90613291565b60026000818155828152600760205260409020908101546003909101546001600160a01b0316331461149c5760405162461bcd60e51b815260206004820152602b60248201527f4f6e6c79207468652073656c6c6572206f662074686973206974656d2063616e60448201526a0819194b5b1a5cdd081a5d60aa1b60648201526084016106bf565b6040516323b872dd60e01b81526001600160a01b038416906323b872dd906114cc9030903390869060040161303d565b600060405180830381600087803b1580156114e657600080fd5b505af11580156114fa573d6000803e3d6000fd5b505050506115086003612341565b60008281526007602081905260408083208381556001810180546001600160a01b031990811690915560028201859055600382018054821690556004820180549091169055600581018490556006808201805461ffff1916905592810184905560080183905590549051339282156108fc02929190818181858888f193505050501580156113d7573d6000803e3d6000fd5b6001600160a01b0382163314156115f35760405162461bcd60e51b815260206004820152601960248201527f4552433732313a20617070726f766520746f2063616c6c65720000000000000060448201526064016106bf565b336000818152600e602090815260408083206001600160a01b03871680855290835292819020805460ff191686151590811790915590519081529192917f17307eab39ab6107e8899845ad3d59bd9653f200f220920489ca2b5937696c31910160405180910390a35050565b61166933836120ac565b6116855760405162461bcd60e51b81526004016106bf90613240565b61169184848484612398565b50505050565b600260005414156116ba5760405162461bcd60e51b81526004016106bf90613291565b60026000818155828152600760205260409020600581015491015434821461174c576040805162461bcd60e51b81526020600482015260248101919091527f506c65617365207375626d6974207468652061736b696e67207072696365206960448201527f6e206f7264657220746f20636f6d706c6574652074686520707572636861736560648201526084016106bf565b6000838152600760205260408082206003015490516001600160a01b03909116913480156108fc02929091818181858888f19350505050158015611794573d6000803e3d6000fd5b506040516323b872dd60e01b81526001600160a01b038516906323b872dd906117c59030903390869060040161303d565b600060405180830381600087803b1580156117df57600080fd5b505af11580156117f3573d6000803e3d6000fd5b50505060008481526007602052604090206004810180546001600160a01b0319163317905560068101805461ffff19166001179055426008909101555061183e600280546001019055565b6005546006546040516001600160a01b039092169181156108fc0291906000818181858888f1935050505015801561187a573d6000803e3d6000fd5b50506001600055505050565b60606105bf826123cb565b6060600061189e836111e8565b67ffffffffffffffff8111156118b6576118b6613407565b6040519080825280602002602001820160405280156118df578160200160208202803683370190505b50905060005b6118ee846111e8565b81101561192e576118ff8482610bf9565b828281518110611911576119116133f1565b60209081029190910101528061192681613380565b9150506118e5565b5092915050565b6060600061194260015490565b905060008060005b8381101561199a5785600760006119628460016132d6565b8152602001908152602001600020600201541415611988576119856001846132d6565b92505b8061199281613380565b91505061194a565b5060008267ffffffffffffffff8111156119b6576119b6613407565b6040519080825280602002602001820160405280156119ef57816020015b6119dc612ac0565b8152602001906001900390816119d45790505b50905060005b84811015611b12578660076000611a0d8460016132d6565b8152602001908152602001600020600201541415611b00576000611a328260016132d6565b6000818152600760208181526040928390208351610140810185528154815260018201546001600160a01b039081169382019390935260028201549481019490945260038101548216606085015260048101549091166080840152600581015460a0840152600681015460ff808216151560c08601526101009182900416151560e085015291810154918301919091526008810154610120830152855192935091859087908110611ae557611ae56133f1565b6020908102919091010152611afb6001866132d6565b945050505b80611b0a81613380565b9150506119f5565b5095945050505050565b60606000611b2960045490565b90506000808267ffffffffffffffff811115611b4757611b47613407565b604051908082528060200260200182016040528015611b8057816020015b611b6d612b32565b815260200190600190039081611b655790505b50905060005b83811015611c37576000611b9b8260016132d6565b600081815260086020908152604091829020825160a0810184528154815260018201549281019290925260028101549282019290925260038201546001600160a01b039081166060830152600483015416608082015285519293509091859087908110611c0a57611c0a6133f1565b6020908102919091010152611c206001866132d6565b945050508080611c2f90613380565b915050611b86565b509392505050565b60606000611c4c60015490565b905060008060005b83811015611caf573360076000611c6c8460016132d6565b81526020810191909152604001600020600301546001600160a01b03161415611c9d57611c9a6001846132d6565b92505b80611ca781613380565b915050611c54565b5060008267ffffffffffffffff811115611ccb57611ccb613407565b604051908082528060200260200182016040528015611d0457816020015b611cf1612ac0565b815260200190600190039081611ce95790505b50905060005b84811015610b5a573360076000611d228460016132d6565b81526020810191909152604001600020600301546001600160a01b03161415611e20576000611d528260016132d6565b6000818152600760208181526040928390208351610140810185528154815260018201546001600160a01b039081169382019390935260028201549481019490945260038101548216606085015260048101549091166080840152600581015460a0840152600681015460ff808216151560c08601526101009182900416151560e085015291810154918301919091526008810154610120830152855192935091859087908110611e0557611e056133f1565b6020908102919091010152611e1b6001866132d6565b945050505b80611e2a81613380565b915050611d0a565b60006001600160e01b0319821663780e9d6360e01b14806105bf57506105bf8261253a565b6000908152600b60205260409020546001600160a01b0316151590565b6001600160a01b038216611eca5760405162461bcd60e51b815260206004820181905260248201527f4552433732313a206d696e7420746f20746865207a65726f206164647265737360448201526064016106bf565b611ed381611e57565b15611f205760405162461bcd60e51b815260206004820152601c60248201527f4552433732313a20746f6b656e20616c7265616479206d696e7465640000000060448201526064016106bf565b611f2c6000838361258a565b6001600160a01b0382166000908152600c60205260408120805460019290611f559084906132d6565b90915550506000818152600b602052604080822080546001600160a01b0319166001600160a01b03861690811790915590518392907fddf252ad1be2c89b69c2b068fc378daa952ba7f163c4a11628f55a4df523b3ef908290a45050565b611fbc82611e57565b61201f5760405162461bcd60e51b815260206004820152602e60248201527f45524337323155524953746f726167653a2055524920736574206f66206e6f6e60448201526d32bc34b9ba32b73a103a37b5b2b760911b60648201526084016106bf565b6000828152600f60209081526040909120825161097092840190612b73565b6000818152600d6020526040902080546001600160a01b0319166001600160a01b038416908117909155819061207382611171565b6001600160a01b03167f8c5be1e5ebec7d5bd14f71427d1e84f3dd0314c0f7b2291e5b200ac8c7c3b92560405160405180910390a45050565b60006120b782611e57565b6121185760405162461bcd60e51b815260206004820152602c60248201527f4552433732313a206f70657261746f7220717565727920666f72206e6f6e657860448201526b34b9ba32b73a103a37b5b2b760a11b60648201526084016106bf565b600061212383611171565b9050806001600160a01b0316846001600160a01b0316148061215e5750836001600160a01b031661215384610657565b6001600160a01b0316145b8061218e57506001600160a01b038082166000908152600e602090815260408083209388168352929052205460ff165b949350505050565b826001600160a01b03166121a982611171565b6001600160a01b0316146122115760405162461bcd60e51b815260206004820152602960248201527f4552433732313a207472616e73666572206f6620746f6b656e2074686174206960448201526839903737ba1037bbb760b91b60648201526084016106bf565b6001600160a01b0382166122735760405162461bcd60e51b8152602060048201526024808201527f4552433732313a207472616e7366657220746f20746865207a65726f206164646044820152637265737360e01b60648201526084016106bf565b61227e83838361258a565b61228960008261203e565b6001600160a01b0383166000908152600c602052604081208054600192906122b2908490613302565b90915550506001600160a01b0382166000908152600c602052604081208054600192906122e09084906132d6565b90915550506000818152600b602052604080822080546001600160a01b0319166001600160a01b0386811691821790925591518493918716917fddf252ad1be2c89b69c2b068fc378daa952ba7f163c4a11628f55a4df523b3ef91a4505050565b8054806123905760405162461bcd60e51b815260206004820152601b60248201527f436f756e7465723a2064656372656d656e74206f766572666c6f77000000000060448201526064016106bf565b600019019055565b6123a3848484612196565b6123af84848484612595565b6116915760405162461bcd60e51b81526004016106bf906131ee565b60606123d682611e57565b61243c5760405162461bcd60e51b815260206004820152603160248201527f45524337323155524953746f726167653a2055524920717565727920666f72206044820152703737b732bc34b9ba32b73a103a37b5b2b760791b60648201526084016106bf565b6000828152600f60205260408120805461245590613345565b80601f016020809104026020016040519081016040528092919081815260200182805461248190613345565b80156124ce5780601f106124a3576101008083540402835291602001916124ce565b820191906000526020600020905b8154815290600101906020018083116124b157829003601f168201915b5050505050905060006124ec60408051602081019091526000815290565b90508051600014156124ff575092915050565b81511561253157808260405160200161251992919061300e565b60405160208183030381529060405292505050919050565b61218e846126a2565b60006001600160e01b031982166380ac58cd60e01b148061256b57506001600160e01b03198216635b5e139f60e01b145b806105bf57506301ffc9a760e01b6001600160e01b03198316146105bf565b61097083838361277a565b60006001600160a01b0384163b1561269757604051630a85bd0160e11b81526001600160a01b0385169063150b7a02906125d9903390899088908890600401613061565b602060405180830381600087803b1580156125f357600080fd5b505af1925050508015612623575060408051601f3d908101601f1916820190925261262091810190612ef6565b60015b61267d573d808015612651576040519150601f19603f3d011682016040523d82523d6000602084013e612656565b606091505b5080516126755760405162461bcd60e51b81526004016106bf906131ee565b805181602001fd5b6001600160e01b031916630a85bd0160e11b14905061218e565b506001949350505050565b60606126ad82611e57565b6127115760405162461bcd60e51b815260206004820152602f60248201527f4552433732314d657461646174613a2055524920717565727920666f72206e6f60448201526e3732bc34b9ba32b73a103a37b5b2b760891b60648201526084016106bf565b600061272860408051602081019091526000815290565b905060008151116127485760405180602001604052806000815250612773565b8061275284612832565b60405160200161276392919061300e565b6040516020818303038152906040525b9392505050565b6001600160a01b0383166127d5576127d081601280546000838152601360205260408120829055600182018355919091527fbb8a6a4669ba250d26cd7a459eca9d215f8307e33aebe50379bc5a3617ec34440155565b6127f8565b816001600160a01b0316836001600160a01b0316146127f8576127f88382612930565b6001600160a01b03821661280f57610970816129cd565b826001600160a01b0316826001600160a01b031614610970576109708282612a7c565b6060816128565750506040805180820190915260018152600360fc1b602082015290565b8160005b8115612880578061286a81613380565b91506128799050600a836132ee565b915061285a565b60008167ffffffffffffffff81111561289b5761289b613407565b6040519080825280601f01601f1916602001820160405280156128c5576020820181803683370190505b5090505b841561218e576128da600183613302565b91506128e7600a8661339b565b6128f29060306132d6565b60f81b818381518110612907576129076133f1565b60200101906001600160f81b031916908160001a905350612929600a866132ee565b94506128c9565b6000600161293d846111e8565b6129479190613302565b60008381526011602052604090205490915080821461299a576001600160a01b03841660009081526010602090815260408083208584528252808320548484528184208190558352601190915290208190555b5060009182526011602090815260408084208490556001600160a01b039094168352601081528383209183525290812055565b6012546000906129df90600190613302565b60008381526013602052604081205460128054939450909284908110612a0757612a076133f1565b906000526020600020015490508060128381548110612a2857612a286133f1565b6000918252602080832090910192909255828152601390915260408082208490558582528120556012805480612a6057612a606133db565b6001900381819060005260206000200160009055905550505050565b6000612a87836111e8565b6001600160a01b039093166000908152601060209081526040808320868452825280832085905593825260119052919091209190915550565b6040518061014001604052806000815260200160006001600160a01b031681526020016000815260200160006001600160a01b0316815260200160006001600160a01b031681526020016000815260200160001515815260200160001515815260200160008152602001600081525090565b6040518060a0016040528060008152602001600081526020016000815260200160006001600160a01b0316815260200160006001600160a01b031681525090565b828054612b7f90613345565b90600052602060002090601f016020900481019282612ba15760008555612be7565b82601f10612bba57805160ff1916838001178555612be7565b82800160010185558215612be7579182015b82811115612be7578251825591602001919060010190612bcc565b50612bf3929150612bf7565b5090565b5b80821115612bf35760008155600101612bf8565b600067ffffffffffffffff80841115612c2757612c27613407565b604051601f8501601f19908116603f01168101908282118183101715612c4f57612c4f613407565b81604052809350858152868686011115612c6857600080fd5b858560208301376000602087830101525050509392505050565b600082601f830112612c9357600080fd5b61277383833560208501612c0c565b600060208284031215612cb457600080fd5b81356127738161341d565b60008060408385031215612cd257600080fd5b8235612cdd8161341d565b91506020830135612ced8161341d565b809150509250929050565b600080600060608486031215612d0d57600080fd5b8335612d188161341d565b92506020840135612d288161341d565b929592945050506040919091013590565b60008060008060808587031215612d4f57600080fd5b8435612d5a8161341d565b93506020850135612d6a8161341d565b925060408501359150606085013567ffffffffffffffff811115612d8d57600080fd5b8501601f81018713612d9e57600080fd5b612dad87823560208401612c0c565b91505092959194509250565b60008060408385031215612dcc57600080fd5b8235612dd78161341d565b915060208301358015158114612ced57600080fd5b60008060408385031215612dff57600080fd5b8235612e0a8161341d565b946020939093013593505050565b600080600060608486031215612e2d57600080fd5b8335612e388161341d565b9250602084013591506040840135612e4f8161341d565b809150509250925092565b600080600060608486031215612e6f57600080fd5b8335612e7a8161341d565b95602085013595506040909401359392505050565b60008060008060808587031215612ea557600080fd5b8435612eb08161341d565b935060208501359250604085013591506060850135612ece8161341d565b939692955090935050565b600060208284031215612eeb57600080fd5b813561277381613435565b600060208284031215612f0857600080fd5b815161277381613435565b600060208284031215612f2557600080fd5b813567ffffffffffffffff811115612f3c57600080fd5b61218e84828501612c82565b60008060408385031215612f5b57600080fd5b823567ffffffffffffffff811115612f7257600080fd5b612f7e85828601612c82565b95602094909401359450505050565b600060208284031215612f9f57600080fd5b5035919050565b60008151808452612fbe816020860160208601613319565b601f01601f19169290920160200192915050565b8051825260208082015190830152604080820151908301526060808201516001600160a01b039081169184019190915260809182015116910152565b60008351613020818460208801613319565b835190830190613034818360208801613319565b01949350505050565b6001600160a01b039384168152919092166020820152604081019190915260600190565b6001600160a01b038581168252841660208201526040810183905260806060820181905260009061309490830184612fa6565b9695505050505050565b6020808252825182820181905260009190848201906040850190845b818110156130e0576130cd838551612fd2565b9284019260a092909201916001016130ba565b50909695505050505050565b602080825282518282018190526000919060409081850190868401855b8281101561319657815180518552868101516001600160a01b039081168887015286820151878701526060808301518216908701526080808301519091169086015260a0808201519086015260c08082015115159086015260e080820151151590860152610100808201519086015261012090810151908501526101409093019290850190600101613109565b5091979650505050505050565b6020808252825182820181905260009190848201906040850190845b818110156130e0578351835292840192918401916001016131bf565b6020815260006127736020830184612fa6565b60208082526032908201527f4552433732313a207472616e7366657220746f206e6f6e20455243373231526560408201527131b2b4bb32b91034b6b83632b6b2b73a32b960711b606082015260800190565b60208082526031908201527f4552433732313a207472616e736665722063616c6c6572206973206e6f74206f6040820152701ddb995c881b9bdc88185c1c1c9bdd9959607a1b606082015260800190565b6020808252601f908201527f5265656e7472616e637947756172643a207265656e7472616e742063616c6c00604082015260600190565b60a081016105bf8284612fd2565b600082198211156132e9576132e96133af565b500190565b6000826132fd576132fd6133c5565b500490565b600082821015613314576133146133af565b500390565b60005b8381101561333457818101518382015260200161331c565b838111156116915750506000910152565b600181811c9082168061335957607f821691505b6020821081141561337a57634e487b7160e01b600052602260045260246000fd5b50919050565b6000600019821415613394576133946133af565b5060010190565b6000826133aa576133aa6133c5565b500690565b634e487b7160e01b600052601160045260246000fd5b634e487b7160e01b600052601260045260246000fd5b634e487b7160e01b600052603160045260246000fd5b634e487b7160e01b600052603260045260246000fd5b634e487b7160e01b600052604160045260246000fd5b6001600160a01b038116811461343257600080fd5b50565b6001600160e01b03198116811461343257600080fdfea2646970667358221220c8568053495e28af10f17341818d9abe9197161a27ad438b395bc296eef1524f64736f6c63430008070033",
  "linkReferences": {},
  "deployedLinkReferences": {}
}