{
  "_format": "hh-sol-artifact-1",
  "contractName": "NFT",
  "sourceName": "contracts/NFT.sol",
  "abi": [
    {
      "inputs": [
        {
          "internalType": "address",
          "name": "marketplaceAddress",
          "type": "address"
        }
      ],
      "stateMutability": "nonpayable",
      "type": "constructor"
    },
    {
      "anonymous": false,
      "inputs": [
        {
          "indexed": true,
          "internalType": "address",
          "name": "owner",
          "type": "address"
        },
        {
          "indexed": true,
          "internalType": "address",
          "name": "approved",
          "type": "address"
        },
        {
          "indexed": true,
          "internalType": "uint256",
          "name": "tokenId",
          "type": "uint256"
        }
      ],
      "name": "Approval",
      "type": "event"
    },
    {
      "anonymous": false,
      "inputs": [
        {
          "indexed": true,
          "internalType": "address",
          "name": "owner",
          "type": "address"
        },
        {
          "indexed": true,
          "internalType": "address",
          "name": "operator",
          "type": "address"
        },
        {
          "indexed": false,
          "internalType": "bool",
          "name": "approved",
          "type": "bool"
        }
      ],
      "name": "ApprovalForAll",
      "type": "event"
    },
    {
      "anonymous": false,
      "inputs": [
        {
          "indexed": true,
          "internalType": "address",
          "name": "from",
          "type": "address"
        },
        {
          "indexed": true,
          "internalType": "address",
          "name": "to",
          "type": "address"
        },
        {
          "indexed": true,
          "internalType": "uint256",
          "name": "tokenId",
          "type": "uint256"
        }
      ],
      "name": "Transfer",
      "type": "event"
    },
    {
      "inputs": [
        {
          "internalType": "address",
          "name": "to",
          "type": "address"
        },
        {
          "internalType": "uint256",
          "name": "tokenId",
          "type": "uint256"
        }
      ],
      "name": "approve",
      "outputs": [],
      "stateMutability": "nonpayable",
      "type": "function"
    },
    {
      "inputs": [
        {
          "internalType": "address",
          "name": "owner",
          "type": "address"
        }
      ],
      "name": "balanceOf",
      "outputs": [
        {
          "internalType": "uint256",
          "name": "",
          "type": "uint256"
        }
      ],
      "stateMutability": "view",
      "type": "function"
    },
    {
      "inputs": [
        {
          "internalType": "string",
          "name": "IPFStokenURI",
          "type": "string"
        }
      ],
      "name": "createToken",
      "outputs": [
        {
          "internalType": "uint256",
          "name": "",
          "type": "uint256"
        }
      ],
      "stateMutability": "nonpayable",
      "type": "function"
    },
    {
      "inputs": [
        {
          "internalType": "string",
          "name": "IPFStokenURI",
          "type": "string"
        },
        {
          "internalType": "uint256",
          "name": "numberInACollection",
          "type": "uint256"
        }
      ],
      "name": "createTokens",
      "outputs": [
        {
          "internalType": "uint256[]",
          "name": "",
          "type": "uint256[]"
        }
      ],
      "stateMutability": "nonpayable",
      "type": "function"
    },
    {
      "inputs": [
        {
          "internalType": "uint256",
          "name": "tokenId",
          "type": "uint256"
        }
      ],
      "name": "getApproved",
      "outputs": [
        {
          "internalType": "address",
          "name": "",
          "type": "address"
        }
      ],
      "stateMutability": "view",
      "type": "function"
    },
    {
      "inputs": [
        {
          "internalType": "address",
          "name": "_owner",
          "type": "address"
        }
      ],
      "name": "getTokenIds",
      "outputs": [
        {
          "internalType": "uint256[]",
          "name": "",
          "type": "uint256[]"
        }
      ],
      "stateMutability": "view",
      "type": "function"
    },
    {
      "inputs": [
        {
          "internalType": "address",
          "name": "owner",
          "type": "address"
        },
        {
          "internalType": "address",
          "name": "operator",
          "type": "address"
        }
      ],
      "name": "isApprovedForAll",
      "outputs": [
        {
          "internalType": "bool",
          "name": "",
          "type": "bool"
        }
      ],
      "stateMutability": "view",
      "type": "function"
    },
    {
      "inputs": [],
      "name": "name",
      "outputs": [
        {
          "internalType": "string",
          "name": "",
          "type": "string"
        }
      ],
      "stateMutability": "view",
      "type": "function"
    },
    {
      "inputs": [
        {
          "internalType": "uint256",
          "name": "tokenId",
          "type": "uint256"
        }
      ],
      "name": "ownerOf",
      "outputs": [
        {
          "internalType": "address",
          "name": "",
          "type": "address"
        }
      ],
      "stateMutability": "view",
      "type": "function"
    },
    {
      "inputs": [
        {
          "internalType": "address",
          "name": "from",
          "type": "address"
        },
        {
          "internalType": "address",
          "name": "to",
          "type": "address"
        },
        {
          "internalType": "uint256",
          "name": "tokenId",
          "type": "uint256"
        }
      ],
      "name": "safeTransferFrom",
      "outputs": [],
      "stateMutability": "nonpayable",
      "type": "function"
    },
    {
      "inputs": [
        {
          "internalType": "address",
          "name": "from",
          "type": "address"
        },
        {
          "internalType": "address",
          "name": "to",
          "type": "address"
        },
        {
          "internalType": "uint256",
          "name": "tokenId",
          "type": "uint256"
        },
        {
          "internalType": "bytes",
          "name": "_data",
          "type": "bytes"
        }
      ],
      "name": "safeTransferFrom",
      "outputs": [],
      "stateMutability": "nonpayable",
      "type": "function"
    },
    {
      "inputs": [
        {
          "internalType": "address",
          "name": "operator",
          "type": "address"
        },
        {
          "internalType": "bool",
          "name": "approved",
          "type": "bool"
        }
      ],
      "name": "setApprovalForAll",
      "outputs": [],
      "stateMutability": "nonpayable",
      "type": "function"
    },
    {
      "inputs": [
        {
          "internalType": "bytes4",
          "name": "interfaceId",
          "type": "bytes4"
        }
      ],
      "name": "supportsInterface",
      "outputs": [
        {
          "internalType": "bool",
          "name": "",
          "type": "bool"
        }
      ],
      "stateMutability": "view",
      "type": "function"
    },
    {
      "inputs": [],
      "name": "symbol",
      "outputs": [
        {
          "internalType": "string",
          "name": "",
          "type": "string"
        }
      ],
      "stateMutability": "view",
      "type": "function"
    },
    {
      "inputs": [
        {
          "internalType": "uint256",
          "name": "index",
          "type": "uint256"
        }
      ],
      "name": "tokenByIndex",
      "outputs": [
        {
          "internalType": "uint256",
          "name": "",
          "type": "uint256"
        }
      ],
      "stateMutability": "view",
      "type": "function"
    },
    {
      "inputs": [
        {
          "internalType": "address",
          "name": "owner",
          "type": "address"
        },
        {
          "internalType": "uint256",
          "name": "index",
          "type": "uint256"
        }
      ],
      "name": "tokenOfOwnerByIndex",
      "outputs": [
        {
          "internalType": "uint256",
          "name": "",
          "type": "uint256"
        }
      ],
      "stateMutability": "view",
      "type": "function"
    },
    {
      "inputs": [
        {
          "internalType": "uint256",
          "name": "tokenId",
          "type": "uint256"
        }
      ],
      "name": "tokenURI",
      "outputs": [
        {
          "internalType": "string",
          "name": "",
          "type": "string"
        }
      ],
      "stateMutability": "view",
      "type": "function"
    },
    {
      "inputs": [],
      "name": "totalSupply",
      "outputs": [
        {
          "internalType": "uint256",
          "name": "",
          "type": "uint256"
        }
      ],
      "stateMutability": "view",
      "type": "function"
    },
    {
      "inputs": [
        {
          "internalType": "address",
          "name": "from",
          "type": "address"
        },
        {
          "internalType": "address",
          "name": "to",
          "type": "address"
        },
        {
          "internalType": "uint256",
          "name": "tokenId",
          "type": "uint256"
        }
      ],
      "name": "transferFrom",
      "outputs": [],
      "stateMutability": "nonpayable",
      "type": "function"
    }
  ],
  "bytecode": "0x60806040523480156200001157600080fd5b5060405162001f6938038062001f69833981016040819052620000349162000167565b60408051808201825260098152684d657461766572736560b81b6020808301918252835180850190945260048452631351551560e21b9084015281519192916200008191600091620000c1565b50805162000097906001906020840190620000c1565b5050600c80546001600160a01b0319166001600160a01b03939093169290921790915550620001d6565b828054620000cf9062000199565b90600052602060002090601f016020900481019282620000f357600085556200013e565b82601f106200010e57805160ff19168380011785556200013e565b828001600101855582156200013e579182015b828111156200013e57825182559160200191906001019062000121565b506200014c92915062000150565b5090565b5b808211156200014c576000815560010162000151565b6000602082840312156200017a57600080fd5b81516001600160a01b03811681146200019257600080fd5b9392505050565b600181811c90821680620001ae57607f821691505b60208210811415620001d057634e487b7160e01b600052602260045260246000fd5b50919050565b611d8380620001e66000396000f3fe608060405234801561001057600080fd5b50600436106101215760003560e01c806345576f94116100ad578063a22cb46511610071578063a22cb46514610262578063b88d4fde14610275578063c87b56dd14610288578063d004b0361461029b578063e985e9c5146102ae57600080fd5b806345576f941461020e5780634f6ccce7146102215780636352211e1461023457806370a082311461024757806395d89b411461025a57600080fd5b8063095ea7b3116100f4578063095ea7b3146101ae57806318160ddd146101c357806323b872dd146101d55780632f745c59146101e857806342842e0e146101fb57600080fd5b806301ffc9a71461012657806306fdde031461014e578063081812fc1461016357806308bc86b61461018e575b600080fd5b61013961013436600461198e565b6102ea565b60405190151581526020015b60405180910390f35b6101566102fb565b6040516101459190611b37565b610176610171366004611a42565b61038d565b6040516001600160a01b039091168152602001610145565b6101a161019c3660046119fd565b61041a565b6040516101459190611af3565b6101c16101bc366004611964565b610514565b005b6009545b604051908152602001610145565b6101c16101e3366004611870565b61062a565b6101c76101f6366004611964565b61065b565b6101c1610209366004611870565b6106f1565b6101c761021c3660046119c8565b61070c565b6101c761022f366004611a42565b610754565b610176610242366004611a42565b6107e7565b6101c7610255366004611822565b61085e565b6101566108e5565b6101c1610270366004611928565b6108f4565b6101c16102833660046118ac565b6109b9565b610156610296366004611a42565b6109f1565b6101a16102a9366004611822565b6109fc565b6101396102bc36600461183d565b6001600160a01b03918216600090815260056020908152604080832093909416825291909152205460ff1690565b60006102f582610aa0565b92915050565b60606000805461030a90611c5c565b80601f016020809104026020016040519081016040528092919081815260200182805461033690611c5c565b80156103835780601f1061035857610100808354040283529160200191610383565b820191906000526020600020905b81548152906001019060200180831161036657829003601f168201915b5050505050905090565b600061039882610ac5565b6103fe5760405162461bcd60e51b815260206004820152602c60248201527f4552433732313a20617070726f76656420717565727920666f72206e6f6e657860448201526b34b9ba32b73a103a37b5b2b760a11b60648201526084015b60405180910390fd5b506000908152600460205260409020546001600160a01b031690565b606060008267ffffffffffffffff81111561043757610437611d1e565b604051908082528060200260200182016040528015610460578160200160208202803683370190505b50905060005b8381101561050c5761047c600b80546001019055565b600b5482828151811061049157610491611d08565b6020026020010181815250506104c0338383815181106104b3576104b3611d08565b6020026020010151610ae2565b6104e38282815181106104d5576104d5611d08565b602002602001015186610c21565b600c546104fa906001600160a01b031660016108f4565b8061050481611c97565b915050610466565b509392505050565b600061051f826107e7565b9050806001600160a01b0316836001600160a01b0316141561058d5760405162461bcd60e51b815260206004820152602160248201527f4552433732313a20617070726f76616c20746f2063757272656e74206f776e656044820152603960f91b60648201526084016103f5565b336001600160a01b03821614806105a957506105a981336102bc565b61061b5760405162461bcd60e51b815260206004820152603860248201527f4552433732313a20617070726f76652063616c6c6572206973206e6f74206f7760448201527f6e6572206e6f7220617070726f76656420666f7220616c6c000000000000000060648201526084016103f5565b6106258383610cac565b505050565b6106343382610d1a565b6106505760405162461bcd60e51b81526004016103f590611b9c565b610625838383610e04565b60006106668361085e565b82106106c85760405162461bcd60e51b815260206004820152602b60248201527f455243373231456e756d657261626c653a206f776e657220696e646578206f7560448201526a74206f6620626f756e647360a81b60648201526084016103f5565b506001600160a01b03919091166000908152600760209081526040808320938352929052205490565b610625838383604051806020016040528060008152506109b9565b600061071c600b80546001019055565b6000610727600b5490565b90506107333382610ae2565b61073d8184610c21565b600c546102f5906001600160a01b031660016108f4565b600061075f60095490565b82106107c25760405162461bcd60e51b815260206004820152602c60248201527f455243373231456e756d657261626c653a20676c6f62616c20696e646578206f60448201526b7574206f6620626f756e647360a01b60648201526084016103f5565b600982815481106107d5576107d5611d08565b90600052602060002001549050919050565b6000818152600260205260408120546001600160a01b0316806102f55760405162461bcd60e51b815260206004820152602960248201527f4552433732313a206f776e657220717565727920666f72206e6f6e657869737460448201526832b73a103a37b5b2b760b91b60648201526084016103f5565b60006001600160a01b0382166108c95760405162461bcd60e51b815260206004820152602a60248201527f4552433732313a2062616c616e636520717565727920666f7220746865207a65604482015269726f206164647265737360b01b60648201526084016103f5565b506001600160a01b031660009081526003602052604090205490565b60606001805461030a90611c5c565b6001600160a01b03821633141561094d5760405162461bcd60e51b815260206004820152601960248201527f4552433732313a20617070726f766520746f2063616c6c65720000000000000060448201526064016103f5565b3360008181526005602090815260408083206001600160a01b03871680855290835292819020805460ff191686151590811790915590519081529192917f17307eab39ab6107e8899845ad3d59bd9653f200f220920489ca2b5937696c31910160405180910390a35050565b6109c33383610d1a565b6109df5760405162461bcd60e51b81526004016103f590611b9c565b6109eb84848484610faf565b50505050565b60606102f582610fe2565b60606000610a098361085e565b67ffffffffffffffff811115610a2157610a21611d1e565b604051908082528060200260200182016040528015610a4a578160200160208202803683370190505b50905060005b610a598461085e565b811015610a9957610a6a848261065b565b828281518110610a7c57610a7c611d08565b602090810291909101015280610a9181611c97565b915050610a50565b5092915050565b60006001600160e01b0319821663780e9d6360e01b14806102f557506102f582611151565b6000908152600260205260409020546001600160a01b0316151590565b6001600160a01b038216610b385760405162461bcd60e51b815260206004820181905260248201527f4552433732313a206d696e7420746f20746865207a65726f206164647265737360448201526064016103f5565b610b4181610ac5565b15610b8e5760405162461bcd60e51b815260206004820152601c60248201527f4552433732313a20746f6b656e20616c7265616479206d696e7465640000000060448201526064016103f5565b610b9a600083836111a1565b6001600160a01b0382166000908152600360205260408120805460019290610bc3908490611bed565b909155505060008181526002602052604080822080546001600160a01b0319166001600160a01b03861690811790915590518392907fddf252ad1be2c89b69c2b068fc378daa952ba7f163c4a11628f55a4df523b3ef908290a45050565b610c2a82610ac5565b610c8d5760405162461bcd60e51b815260206004820152602e60248201527f45524337323155524953746f726167653a2055524920736574206f66206e6f6e60448201526d32bc34b9ba32b73a103a37b5b2b760911b60648201526084016103f5565b60008281526006602090815260409091208251610625928401906116d7565b600081815260046020526040902080546001600160a01b0319166001600160a01b0384169081179091558190610ce1826107e7565b6001600160a01b03167f8c5be1e5ebec7d5bd14f71427d1e84f3dd0314c0f7b2291e5b200ac8c7c3b92560405160405180910390a45050565b6000610d2582610ac5565b610d865760405162461bcd60e51b815260206004820152602c60248201527f4552433732313a206f70657261746f7220717565727920666f72206e6f6e657860448201526b34b9ba32b73a103a37b5b2b760a11b60648201526084016103f5565b6000610d91836107e7565b9050806001600160a01b0316846001600160a01b03161480610dcc5750836001600160a01b0316610dc18461038d565b6001600160a01b0316145b80610dfc57506001600160a01b0380821660009081526005602090815260408083209388168352929052205460ff165b949350505050565b826001600160a01b0316610e17826107e7565b6001600160a01b031614610e7f5760405162461bcd60e51b815260206004820152602960248201527f4552433732313a207472616e73666572206f6620746f6b656e2074686174206960448201526839903737ba1037bbb760b91b60648201526084016103f5565b6001600160a01b038216610ee15760405162461bcd60e51b8152602060048201526024808201527f4552433732313a207472616e7366657220746f20746865207a65726f206164646044820152637265737360e01b60648201526084016103f5565b610eec8383836111a1565b610ef7600082610cac565b6001600160a01b0383166000908152600360205260408120805460019290610f20908490611c19565b90915550506001600160a01b0382166000908152600360205260408120805460019290610f4e908490611bed565b909155505060008181526002602052604080822080546001600160a01b0319166001600160a01b0386811691821790925591518493918716917fddf252ad1be2c89b69c2b068fc378daa952ba7f163c4a11628f55a4df523b3ef91a4505050565b610fba848484610e04565b610fc6848484846111ac565b6109eb5760405162461bcd60e51b81526004016103f590611b4a565b6060610fed82610ac5565b6110535760405162461bcd60e51b815260206004820152603160248201527f45524337323155524953746f726167653a2055524920717565727920666f72206044820152703737b732bc34b9ba32b73a103a37b5b2b760791b60648201526084016103f5565b6000828152600660205260408120805461106c90611c5c565b80601f016020809104026020016040519081016040528092919081815260200182805461109890611c5c565b80156110e55780601f106110ba576101008083540402835291602001916110e5565b820191906000526020600020905b8154815290600101906020018083116110c857829003601f168201915b50505050509050600061110360408051602081019091526000815290565b9050805160001415611116575092915050565b815115611148578082604051602001611130929190611a87565b60405160208183030381529060405292505050919050565b610dfc846112b9565b60006001600160e01b031982166380ac58cd60e01b148061118257506001600160e01b03198216635b5e139f60e01b145b806102f557506301ffc9a760e01b6001600160e01b03198316146102f5565b610625838383611391565b60006001600160a01b0384163b156112ae57604051630a85bd0160e11b81526001600160a01b0385169063150b7a02906111f0903390899088908890600401611ab6565b602060405180830381600087803b15801561120a57600080fd5b505af192505050801561123a575060408051601f3d908101601f19168201909252611237918101906119ab565b60015b611294573d808015611268576040519150601f19603f3d011682016040523d82523d6000602084013e61126d565b606091505b50805161128c5760405162461bcd60e51b81526004016103f590611b4a565b805181602001fd5b6001600160e01b031916630a85bd0160e11b149050610dfc565b506001949350505050565b60606112c482610ac5565b6113285760405162461bcd60e51b815260206004820152602f60248201527f4552433732314d657461646174613a2055524920717565727920666f72206e6f60448201526e3732bc34b9ba32b73a103a37b5b2b760891b60648201526084016103f5565b600061133f60408051602081019091526000815290565b9050600081511161135f576040518060200160405280600081525061138a565b8061136984611449565b60405160200161137a929190611a87565b6040516020818303038152906040525b9392505050565b6001600160a01b0383166113ec576113e781600980546000838152600a60205260408120829055600182018355919091527f6e1540171b6c0c960b71a7020d9f60077f6af931a8bbf590da0223dacf75c7af0155565b61140f565b816001600160a01b0316836001600160a01b03161461140f5761140f8382611547565b6001600160a01b03821661142657610625816115e4565b826001600160a01b0316826001600160a01b031614610625576106258282611693565b60608161146d5750506040805180820190915260018152600360fc1b602082015290565b8160005b8115611497578061148181611c97565b91506114909050600a83611c05565b9150611471565b60008167ffffffffffffffff8111156114b2576114b2611d1e565b6040519080825280601f01601f1916602001820160405280156114dc576020820181803683370190505b5090505b8415610dfc576114f1600183611c19565b91506114fe600a86611cb2565b611509906030611bed565b60f81b81838151811061151e5761151e611d08565b60200101906001600160f81b031916908160001a905350611540600a86611c05565b94506114e0565b600060016115548461085e565b61155e9190611c19565b6000838152600860205260409020549091508082146115b1576001600160a01b03841660009081526007602090815260408083208584528252808320548484528184208190558352600890915290208190555b5060009182526008602090815260408084208490556001600160a01b039094168352600781528383209183525290812055565b6009546000906115f690600190611c19565b6000838152600a60205260408120546009805493945090928490811061161e5761161e611d08565b90600052602060002001549050806009838154811061163f5761163f611d08565b6000918252602080832090910192909255828152600a9091526040808220849055858252812055600980548061167757611677611cf2565b6001900381819060005260206000200160009055905550505050565b600061169e8361085e565b6001600160a01b039093166000908152600760209081526040808320868452825280832085905593825260089052919091209190915550565b8280546116e390611c5c565b90600052602060002090601f016020900481019282611705576000855561174b565b82601f1061171e57805160ff191683800117855561174b565b8280016001018555821561174b579182015b8281111561174b578251825591602001919060010190611730565b5061175792915061175b565b5090565b5b80821115611757576000815560010161175c565b600067ffffffffffffffff8084111561178b5761178b611d1e565b604051601f8501601f19908116603f011681019082821181831017156117b3576117b3611d1e565b816040528093508581528686860111156117cc57600080fd5b858560208301376000602087830101525050509392505050565b80356001600160a01b03811681146117fd57600080fd5b919050565b600082601f83011261181357600080fd5b61138a83833560208501611770565b60006020828403121561183457600080fd5b61138a826117e6565b6000806040838503121561185057600080fd5b611859836117e6565b9150611867602084016117e6565b90509250929050565b60008060006060848603121561188557600080fd5b61188e846117e6565b925061189c602085016117e6565b9150604084013590509250925092565b600080600080608085870312156118c257600080fd5b6118cb856117e6565b93506118d9602086016117e6565b925060408501359150606085013567ffffffffffffffff8111156118fc57600080fd5b8501601f8101871361190d57600080fd5b61191c87823560208401611770565b91505092959194509250565b6000806040838503121561193b57600080fd5b611944836117e6565b91506020830135801515811461195957600080fd5b809150509250929050565b6000806040838503121561197757600080fd5b611980836117e6565b946020939093013593505050565b6000602082840312156119a057600080fd5b813561138a81611d34565b6000602082840312156119bd57600080fd5b815161138a81611d34565b6000602082840312156119da57600080fd5b813567ffffffffffffffff8111156119f157600080fd5b610dfc84828501611802565b60008060408385031215611a1057600080fd5b823567ffffffffffffffff811115611a2757600080fd5b611a3385828601611802565b95602094909401359450505050565b600060208284031215611a5457600080fd5b5035919050565b60008151808452611a73816020860160208601611c30565b601f01601f19169290920160200192915050565b60008351611a99818460208801611c30565b835190830190611aad818360208801611c30565b01949350505050565b6001600160a01b0385811682528416602082015260408101839052608060608201819052600090611ae990830184611a5b565b9695505050505050565b6020808252825182820181905260009190848201906040850190845b81811015611b2b57835183529284019291840191600101611b0f565b50909695505050505050565b60208152600061138a6020830184611a5b565b60208082526032908201527f4552433732313a207472616e7366657220746f206e6f6e20455243373231526560408201527131b2b4bb32b91034b6b83632b6b2b73a32b960711b606082015260800190565b60208082526031908201527f4552433732313a207472616e736665722063616c6c6572206973206e6f74206f6040820152701ddb995c881b9bdc88185c1c1c9bdd9959607a1b606082015260800190565b60008219821115611c0057611c00611cc6565b500190565b600082611c1457611c14611cdc565b500490565b600082821015611c2b57611c2b611cc6565b500390565b60005b83811015611c4b578181015183820152602001611c33565b838111156109eb5750506000910152565b600181811c90821680611c7057607f821691505b60208210811415611c9157634e487b7160e01b600052602260045260246000fd5b50919050565b6000600019821415611cab57611cab611cc6565b5060010190565b600082611cc157611cc1611cdc565b500690565b634e487b7160e01b600052601160045260246000fd5b634e487b7160e01b600052601260045260246000fd5b634e487b7160e01b600052603160045260246000fd5b634e487b7160e01b600052603260045260246000fd5b634e487b7160e01b600052604160045260246000fd5b6001600160e01b031981168114611d4a57600080fd5b5056fea2646970667358221220094631d7391dd23d0ad9a36a43e871cfb3b1c884fc654b53c21a04be366ee85464736f6c63430008070033",
  "linkReferences": {},
  "deployedLinkReferences": {}
}