{
  "_format": "hh-sol-artifact-1",
  "contractName": "NFTMarket",
  "sourceName": "contracts/NFTMarket.sol",
  "abi": [
    {
      "inputs": [],
      "stateMutability": "nonpayable",
      "type": "constructor"
    },
    {
      "anonymous": false,
      "inputs": [
        {
          "indexed": true,
          "internalType": "uint256",
          "name": "itemId",
          "type": "uint256"
        },
        {
          "indexed": true,
          "internalType": "address",
          "name": "nftContract",
          "type": "address"
        },
        {
          "indexed": true,
          "internalType": "uint256",
          "name": "tokenId",
          "type": "uint256"
        },
        {
          "indexed": false,
          "internalType": "address",
          "name": "seller",
          "type": "address"
        },
        {
          "indexed": false,
          "internalType": "address",
          "name": "owner",
          "type": "address"
        },
        {
          "indexed": false,
          "internalType": "uint256",
          "name": "price",
          "type": "uint256"
        },
        {
          "indexed": false,
          "internalType": "bool",
          "name": "sold",
          "type": "bool"
        },
        {
          "indexed": false,
          "internalType": "bool",
          "name": "listed",
          "type": "bool"
        },
        {
          "indexed": false,
          "internalType": "uint256",
          "name": "timeItemGotListed",
          "type": "uint256"
        },
        {
          "indexed": false,
          "internalType": "uint256",
          "name": "timeItemGotSold",
          "type": "uint256"
        }
      ],
      "name": "MarketItemCreated",
      "type": "event"
    },
    {
      "inputs": [
        {
          "internalType": "address",
          "name": "nftContract",
          "type": "address"
        },
        {
          "internalType": "uint256",
          "name": "tokenId",
          "type": "uint256"
        },
        {
          "internalType": "uint256",
          "name": "price",
          "type": "uint256"
        }
      ],
      "name": "createMarketItem",
      "outputs": [],
      "stateMutability": "payable",
      "type": "function"
    },
    {
      "inputs": [
        {
          "internalType": "address",
          "name": "nftContract",
          "type": "address"
        },
        {
          "internalType": "uint256",
          "name": "itemId",
          "type": "uint256"
        }
      ],
      "name": "createMarketSale",
      "outputs": [],
      "stateMutability": "payable",
      "type": "function"
    },
    {
      "inputs": [],
      "name": "fetchItemsCreated",
      "outputs": [
        {
          "components": [
            {
              "internalType": "uint256",
              "name": "itemId",
              "type": "uint256"
            },
            {
              "internalType": "address",
              "name": "nftContract",
              "type": "address"
            },
            {
              "internalType": "uint256",
              "name": "tokenId",
              "type": "uint256"
            },
            {
              "internalType": "address payable",
              "name": "seller",
              "type": "address"
            },
            {
              "internalType": "address payable",
              "name": "owner",
              "type": "address"
            },
            {
              "internalType": "uint256",
              "name": "price",
              "type": "uint256"
            },
            {
              "internalType": "bool",
              "name": "sold",
              "type": "bool"
            },
            {
              "internalType": "bool",
              "name": "listed",
              "type": "bool"
            },
            {
              "internalType": "uint256",
              "name": "timeItemGotListed",
              "type": "uint256"
            },
            {
              "internalType": "uint256",
              "name": "timeItemGotSold",
              "type": "uint256"
            }
          ],
          "internalType": "struct NFTMarket.MarketItem[]",
          "name": "",
          "type": "tuple[]"
        }
      ],
      "stateMutability": "view",
      "type": "function"
    },
    {
      "inputs": [
        {
          "internalType": "uint256",
          "name": "_tokenId",
          "type": "uint256"
        }
      ],
      "name": "fetchMarketItemHistory",
      "outputs": [
        {
          "components": [
            {
              "internalType": "uint256",
              "name": "itemId",
              "type": "uint256"
            },
            {
              "internalType": "address",
              "name": "nftContract",
              "type": "address"
            },
            {
              "internalType": "uint256",
              "name": "tokenId",
              "type": "uint256"
            },
            {
              "internalType": "address payable",
              "name": "seller",
              "type": "address"
            },
            {
              "internalType": "address payable",
              "name": "owner",
              "type": "address"
            },
            {
              "internalType": "uint256",
              "name": "price",
              "type": "uint256"
            },
            {
              "internalType": "bool",
              "name": "sold",
              "type": "bool"
            },
            {
              "internalType": "bool",
              "name": "listed",
              "type": "bool"
            },
            {
              "internalType": "uint256",
              "name": "timeItemGotListed",
              "type": "uint256"
            },
            {
              "internalType": "uint256",
              "name": "timeItemGotSold",
              "type": "uint256"
            }
          ],
          "internalType": "struct NFTMarket.MarketItem[]",
          "name": "",
          "type": "tuple[]"
        }
      ],
      "stateMutability": "view",
      "type": "function"
    },
    {
      "inputs": [],
      "name": "fetchMarketItems",
      "outputs": [
        {
          "components": [
            {
              "internalType": "uint256",
              "name": "itemId",
              "type": "uint256"
            },
            {
              "internalType": "address",
              "name": "nftContract",
              "type": "address"
            },
            {
              "internalType": "uint256",
              "name": "tokenId",
              "type": "uint256"
            },
            {
              "internalType": "address payable",
              "name": "seller",
              "type": "address"
            },
            {
              "internalType": "address payable",
              "name": "owner",
              "type": "address"
            },
            {
              "internalType": "uint256",
              "name": "price",
              "type": "uint256"
            },
            {
              "internalType": "bool",
              "name": "sold",
              "type": "bool"
            },
            {
              "internalType": "bool",
              "name": "listed",
              "type": "bool"
            },
            {
              "internalType": "uint256",
              "name": "timeItemGotListed",
              "type": "uint256"
            },
            {
              "internalType": "uint256",
              "name": "timeItemGotSold",
              "type": "uint256"
            }
          ],
          "internalType": "struct NFTMarket.MarketItem[]",
          "name": "",
          "type": "tuple[]"
        }
      ],
      "stateMutability": "view",
      "type": "function"
    },
    {
      "inputs": [],
      "name": "getListingPrice",
      "outputs": [
        {
          "internalType": "uint256",
          "name": "",
          "type": "uint256"
        }
      ],
      "stateMutability": "view",
      "type": "function"
    },
    {
      "inputs": [
        {
          "internalType": "address",
          "name": "nftContract",
          "type": "address"
        },
        {
          "internalType": "uint256",
          "name": "itemId",
          "type": "uint256"
        }
      ],
      "name": "removeMarketSale",
      "outputs": [],
      "stateMutability": "payable",
      "type": "function"
    },
    {
      "inputs": [
        {
          "internalType": "address",
          "name": "nftContract",
          "type": "address"
        },
        {
          "internalType": "uint256",
          "name": "itemId",
          "type": "uint256"
        },
        {
          "internalType": "address payable",
          "name": "buyer",
          "type": "address"
        }
      ],
      "name": "transferToBuyer",
      "outputs": [],
      "stateMutability": "payable",
      "type": "function"
    }
  ],
  "bytecode": "0x60806040526658d15e1762800060055534801561001b57600080fd5b506001600055600480546001600160a01b031916331790556112e1806100426000396000f3fe60806040526004361061007b5760003560e01c8063a17ee9281161004e578063a17ee928146100f1578063c23b139e14610104578063d2d9b4e114610117578063f064c32e1461013757600080fd5b80630f08efe01461008057806312e85585146100ab57806358eb2df5146100c957806378044ba5146100de575b600080fd5b34801561008c57600080fd5b5061009561014c565b6040516100a29190611119565b60405180910390f35b3480156100b757600080fd5b506005546040519081526020016100a2565b6100dc6100d73660046110a7565b610337565b005b6100dc6100ec366004611065565b61068d565b6100dc6100ff366004611039565b610802565b6100dc610112366004611039565b6109ab565b34801561012357600080fd5b506100956101323660046110dc565b610b9c565b34801561014357600080fd5b50610095610d80565b6060600061015960015490565b9050600061016660025490565b600354610173919061121f565b90506000808267ffffffffffffffff8111156101915761019161127d565b6040519080825280602002602001820160405280156101ca57816020015b6101b7610fc7565b8152602001906001900390816101af5790505b50905060005b8481101561032e5760006006816101e8846001611207565b81526020810191909152604001600020600401546001600160a01b031614801561023f57506006600061021c836001611207565b815260208101919091526040016000206006015460ff6101009091041615156001145b1561031c576000610251826001611207565b6000818152600660208181526040928390208351610140810185528154815260018201546001600160a01b039081169382019390935260028201549481019490945260038101548216606085015260048101549091166080840152600581015460a08401529081015460ff808216151560c08501526101009182900416151560e0840152600782015490830152600881015461012083015285519293509185908790811061030157610301611267565b6020908102919091010152610317600186611207565b945050505b8061032681611236565b9150506101d0565b50949350505050565b600260005414156103635760405162461bcd60e51b815260040161035a906111d0565b60405180910390fd5b6002600055806103b55760405162461bcd60e51b815260206004820152601c60248201527f5072696365206d757374206265206174206c6561737420312077656900000000604482015260640161035a565b60055434146104125760405162461bcd60e51b8152602060048201526024808201527f5072696365206d75737420626520657175616c20746f206c697374696e6720706044820152637269636560e01b606482015260840161035a565b610420600380546001019055565b61042e600180546001019055565b600061043960015490565b9050604051806101400160405280828152602001856001600160a01b03168152602001848152602001336001600160a01b0316815260200160006001600160a01b031681526020018381526020016000151581526020016001151581526020014281526020016000815250600660008381526020019081526020016000206000820151816000015560208201518160010160006101000a8154816001600160a01b0302191690836001600160a01b031602179055506040820151816002015560608201518160030160006101000a8154816001600160a01b0302191690836001600160a01b0316021790555060808201518160040160006101000a8154816001600160a01b0302191690836001600160a01b0316021790555060a0820151816005015560c08201518160060160006101000a81548160ff02191690831515021790555060e08201518160060160016101000a81548160ff02191690831515021790555061010082015181600701556101208201518160080155905050836001600160a01b03166323b872dd3330866040518463ffffffff1660e01b81526004016105e5939291906110f5565b600060405180830381600087803b1580156105ff57600080fd5b505af1158015610613573d6000803e3d6000fd5b50506040805133815260006020820181905281830187905260608201819052600160808301524260a083015260c082015290518693506001600160a01b038816925084917f6f369afbb70a4a188a6625b97a5cb95dca09619f8b987b62ae287e2879b86f37919081900360e00190a4505060016000555050565b600260005414156106b05760405162461bcd60e51b815260040161035a906111d0565b60026000818155838152600660205260409020908101546003909101546001600160a01b031633146107415760405162461bcd60e51b815260206004820152603460248201527f4f6e6c79207468652053656c6c6572206f6620746869732070726f647563742060448201527318d85b881d1c985b9cd9995c881d1a194813919560621b606482015260840161035a565b6040516323b872dd60e01b81526001600160a01b038516906323b872dd90610771903090869086906004016110f5565b600060405180830381600087803b15801561078b57600080fd5b505af115801561079f573d6000803e3d6000fd5b50505060008481526006602081905260409091206004810180546001600160a01b0387166001600160a01b0319909116179055908101805461ffff1916600117905542600890910155506107f7600280546001019055565b505060016000555050565b600260005414156108255760405162461bcd60e51b815260040161035a906111d0565b60026000818155828152600660205260409020908101546003909101546001600160a01b031633146108ad5760405162461bcd60e51b815260206004820152602b60248201527f4f6e6c79207468652073656c6c6572206f662074686973206974656d2063616e60448201526a0819194b5b1a5cdd081a5d60aa1b606482015260840161035a565b6040516323b872dd60e01b81526001600160a01b038416906323b872dd906108dd903090339086906004016110f5565b600060405180830381600087803b1580156108f757600080fd5b505af115801561090b573d6000803e3d6000fd5b505050506109196003610f70565b60008281526006602081905260408083208381556001810180546001600160a01b0319908116909155600282018590556003820180548216905560048201805490911690556005808201859055928101805461ffff191690556007810184905560080183905590549051339282156108fc02929190818181858888f193505050501580156107f7573d6000803e3d6000fd5b600260005414156109ce5760405162461bcd60e51b815260040161035a906111d0565b600260008181558281526006602052604090206005810154910154348214610a60576040805162461bcd60e51b81526020600482015260248101919091527f506c65617365207375626d6974207468652061736b696e67207072696365206960448201527f6e206f7264657220746f20636f6d706c65746520746865207075726368617365606482015260840161035a565b6000838152600660205260408082206003015490516001600160a01b03909116913480156108fc02929091818181858888f19350505050158015610aa8573d6000803e3d6000fd5b506040516323b872dd60e01b81526001600160a01b038516906323b872dd90610ad9903090339086906004016110f5565b600060405180830381600087803b158015610af357600080fd5b505af1158015610b07573d6000803e3d6000fd5b50505060008481526006602081905260409091206004810180546001600160a01b03191633179055908101805461ffff191660011790554260089091015550610b54600280546001019055565b6004546005546040516001600160a01b039092169181156108fc0291906000818181858888f19350505050158015610b90573d6000803e3d6000fd5b50506001600055505050565b60606000610ba960015490565b905060008060005b83811015610c01578560066000610bc9846001611207565b8152602001908152602001600020600201541415610bef57610bec600184611207565b92505b80610bf981611236565b915050610bb1565b5060008267ffffffffffffffff811115610c1d57610c1d61127d565b604051908082528060200260200182016040528015610c5657816020015b610c43610fc7565b815260200190600190039081610c3b5790505b50905060005b84811015610d76578660066000610c74846001611207565b8152602001908152602001600020600201541415610d64576000610c99826001611207565b6000818152600660208181526040928390208351610140810185528154815260018201546001600160a01b039081169382019390935260028201549481019490945260038101548216606085015260048101549091166080840152600581015460a08401529081015460ff808216151560c08501526101009182900416151560e08401526007820154908301526008810154610120830152855192935091859087908110610d4957610d49611267565b6020908102919091010152610d5f600186611207565b945050505b80610d6e81611236565b915050610c5c565b5095945050505050565b60606000610d8d60015490565b905060008060005b83811015610df0573360066000610dad846001611207565b81526020810191909152604001600020600301546001600160a01b03161415610dde57610ddb600184611207565b92505b80610de881611236565b915050610d95565b5060008267ffffffffffffffff811115610e0c57610e0c61127d565b604051908082528060200260200182016040528015610e4557816020015b610e32610fc7565b815260200190600190039081610e2a5790505b50905060005b8481101561032e573360066000610e63846001611207565b81526020810191909152604001600020600301546001600160a01b03161415610f5e576000610e93826001611207565b6000818152600660208181526040928390208351610140810185528154815260018201546001600160a01b039081169382019390935260028201549481019490945260038101548216606085015260048101549091166080840152600581015460a08401529081015460ff808216151560c08501526101009182900416151560e08401526007820154908301526008810154610120830152855192935091859087908110610f4357610f43611267565b6020908102919091010152610f59600186611207565b945050505b80610f6881611236565b915050610e4b565b805480610fbf5760405162461bcd60e51b815260206004820152601b60248201527f436f756e7465723a2064656372656d656e74206f766572666c6f770000000000604482015260640161035a565b600019019055565b6040518061014001604052806000815260200160006001600160a01b031681526020016000815260200160006001600160a01b0316815260200160006001600160a01b031681526020016000815260200160001515815260200160001515815260200160008152602001600081525090565b6000806040838503121561104c57600080fd5b823561105781611293565b946020939093013593505050565b60008060006060848603121561107a57600080fd5b833561108581611293565b925060208401359150604084013561109c81611293565b809150509250925092565b6000806000606084860312156110bc57600080fd5b83356110c781611293565b95602085013595506040909401359392505050565b6000602082840312156110ee57600080fd5b5035919050565b6001600160a01b039384168152919092166020820152604081019190915260600190565b602080825282518282018190526000919060409081850190868401855b828110156111c357815180518552868101516001600160a01b039081168887015286820151878701526060808301518216908701526080808301519091169086015260a0808201519086015260c08082015115159086015260e080820151151590860152610100808201519086015261012090810151908501526101409093019290850190600101611136565b5091979650505050505050565b6020808252601f908201527f5265656e7472616e637947756172643a207265656e7472616e742063616c6c00604082015260600190565b6000821982111561121a5761121a611251565b500190565b60008282101561123157611231611251565b500390565b600060001982141561124a5761124a611251565b5060010190565b634e487b7160e01b600052601160045260246000fd5b634e487b7160e01b600052603260045260246000fd5b634e487b7160e01b600052604160045260246000fd5b6001600160a01b03811681146112a857600080fd5b5056fea26469706673582212203f5bdbc8df309b9c10d67cfd32db3c973bfbc9d0f12502283597553acac54d9264736f6c63430008070033",
  "linkReferences": {},
  "deployedLinkReferences": {}
}