{
  "_format": "hh-sol-artifact-1",
  "contractName": "NFTMarket",
  "sourceName": "contracts/NFTMarket.sol",
  "abi": [
    {
      "inputs": [],
      "stateMutability": "nonpayable",
      "type": "constructor"
    },
    {
      "anonymous": false,
      "inputs": [
        {
          "indexed": true,
          "internalType": "uint256",
          "name": "itemId",
          "type": "uint256"
        },
        {
          "indexed": true,
          "internalType": "address",
          "name": "nftContract",
          "type": "address"
        },
        {
          "indexed": true,
          "internalType": "uint256",
          "name": "tokenId",
          "type": "uint256"
        },
        {
          "indexed": false,
          "internalType": "address",
          "name": "seller",
          "type": "address"
        },
        {
          "indexed": false,
          "internalType": "address",
          "name": "owner",
          "type": "address"
        },
        {
          "indexed": false,
          "internalType": "uint256",
          "name": "price",
          "type": "uint256"
        },
        {
          "indexed": false,
          "internalType": "bool",
          "name": "sold",
          "type": "bool"
        },
        {
          "indexed": false,
          "internalType": "bool",
          "name": "listed",
          "type": "bool"
        },
        {
          "indexed": false,
          "internalType": "uint256",
          "name": "timeItemGotListed",
          "type": "uint256"
        },
        {
          "indexed": false,
          "internalType": "uint256",
          "name": "timeItemGotSold",
          "type": "uint256"
        }
      ],
      "name": "MarketItemCreated",
      "type": "event"
    },
    {
      "inputs": [
        {
          "internalType": "address",
          "name": "nftContract",
          "type": "address"
        },
        {
          "internalType": "uint256",
          "name": "currentTokenId",
          "type": "uint256"
        },
        {
          "internalType": "uint256",
          "name": "itemSize",
          "type": "uint256"
        },
        {
          "internalType": "address",
          "name": "collectionSeller",
          "type": "address"
        }
      ],
      "name": "createCollection",
      "outputs": [],
      "stateMutability": "nonpayable",
      "type": "function"
    },
    {
      "inputs": [
        {
          "internalType": "address",
          "name": "nftContract",
          "type": "address"
        },
        {
          "internalType": "uint256",
          "name": "tokenId",
          "type": "uint256"
        },
        {
          "internalType": "uint256",
          "name": "price",
          "type": "uint256"
        }
      ],
      "name": "createMarketItem",
      "outputs": [],
      "stateMutability": "payable",
      "type": "function"
    },
    {
      "inputs": [
        {
          "internalType": "address",
          "name": "nftContract",
          "type": "address"
        },
        {
          "internalType": "uint256",
          "name": "itemId",
          "type": "uint256"
        }
      ],
      "name": "createMarketSale",
      "outputs": [],
      "stateMutability": "payable",
      "type": "function"
    },
    {
      "inputs": [
        {
          "internalType": "uint256",
          "name": "id",
          "type": "uint256"
        }
      ],
      "name": "fetchCollectionById",
      "outputs": [
        {
          "components": [
            {
              "internalType": "uint256",
              "name": "collectionId",
              "type": "uint256"
            },
            {
              "internalType": "uint256",
              "name": "startTokenId",
              "type": "uint256"
            },
            {
              "internalType": "uint256",
              "name": "collectionSize",
              "type": "uint256"
            },
            {
              "internalType": "address",
              "name": "seller",
              "type": "address"
            },
            {
              "internalType": "address",
              "name": "nftContract",
              "type": "address"
            }
          ],
          "internalType": "struct NFTMarket.Collection",
          "name": "",
          "type": "tuple"
        }
      ],
      "stateMutability": "view",
      "type": "function"
    },
    {
      "inputs": [],
      "name": "fetchCollections",
      "outputs": [
        {
          "components": [
            {
              "internalType": "uint256",
              "name": "collectionId",
              "type": "uint256"
            },
            {
              "internalType": "uint256",
              "name": "startTokenId",
              "type": "uint256"
            },
            {
              "internalType": "uint256",
              "name": "collectionSize",
              "type": "uint256"
            },
            {
              "internalType": "address",
              "name": "seller",
              "type": "address"
            },
            {
              "internalType": "address",
              "name": "nftContract",
              "type": "address"
            }
          ],
          "internalType": "struct NFTMarket.Collection[]",
          "name": "",
          "type": "tuple[]"
        }
      ],
      "stateMutability": "view",
      "type": "function"
    },
    {
      "inputs": [],
      "name": "fetchItemsCreated",
      "outputs": [
        {
          "components": [
            {
              "internalType": "uint256",
              "name": "itemId",
              "type": "uint256"
            },
            {
              "internalType": "address",
              "name": "nftContract",
              "type": "address"
            },
            {
              "internalType": "uint256",
              "name": "tokenId",
              "type": "uint256"
            },
            {
              "internalType": "address payable",
              "name": "seller",
              "type": "address"
            },
            {
              "internalType": "address payable",
              "name": "owner",
              "type": "address"
            },
            {
              "internalType": "uint256",
              "name": "price",
              "type": "uint256"
            },
            {
              "internalType": "bool",
              "name": "sold",
              "type": "bool"
            },
            {
              "internalType": "bool",
              "name": "listed",
              "type": "bool"
            },
            {
              "internalType": "uint256",
              "name": "timeItemGotListed",
              "type": "uint256"
            },
            {
              "internalType": "uint256",
              "name": "timeItemGotSold",
              "type": "uint256"
            }
          ],
          "internalType": "struct NFTMarket.MarketItem[]",
          "name": "",
          "type": "tuple[]"
        }
      ],
      "stateMutability": "view",
      "type": "function"
    },
    {
      "inputs": [
        {
          "internalType": "uint256",
          "name": "_tokenId",
          "type": "uint256"
        }
      ],
      "name": "fetchMarketItemHistory",
      "outputs": [
        {
          "components": [
            {
              "internalType": "uint256",
              "name": "itemId",
              "type": "uint256"
            },
            {
              "internalType": "address",
              "name": "nftContract",
              "type": "address"
            },
            {
              "internalType": "uint256",
              "name": "tokenId",
              "type": "uint256"
            },
            {
              "internalType": "address payable",
              "name": "seller",
              "type": "address"
            },
            {
              "internalType": "address payable",
              "name": "owner",
              "type": "address"
            },
            {
              "internalType": "uint256",
              "name": "price",
              "type": "uint256"
            },
            {
              "internalType": "bool",
              "name": "sold",
              "type": "bool"
            },
            {
              "internalType": "bool",
              "name": "listed",
              "type": "bool"
            },
            {
              "internalType": "uint256",
              "name": "timeItemGotListed",
              "type": "uint256"
            },
            {
              "internalType": "uint256",
              "name": "timeItemGotSold",
              "type": "uint256"
            }
          ],
          "internalType": "struct NFTMarket.MarketItem[]",
          "name": "",
          "type": "tuple[]"
        }
      ],
      "stateMutability": "view",
      "type": "function"
    },
    {
      "inputs": [],
      "name": "fetchMarketItems",
      "outputs": [
        {
          "components": [
            {
              "internalType": "uint256",
              "name": "itemId",
              "type": "uint256"
            },
            {
              "internalType": "address",
              "name": "nftContract",
              "type": "address"
            },
            {
              "internalType": "uint256",
              "name": "tokenId",
              "type": "uint256"
            },
            {
              "internalType": "address payable",
              "name": "seller",
              "type": "address"
            },
            {
              "internalType": "address payable",
              "name": "owner",
              "type": "address"
            },
            {
              "internalType": "uint256",
              "name": "price",
              "type": "uint256"
            },
            {
              "internalType": "bool",
              "name": "sold",
              "type": "bool"
            },
            {
              "internalType": "bool",
              "name": "listed",
              "type": "bool"
            },
            {
              "internalType": "uint256",
              "name": "timeItemGotListed",
              "type": "uint256"
            },
            {
              "internalType": "uint256",
              "name": "timeItemGotSold",
              "type": "uint256"
            }
          ],
          "internalType": "struct NFTMarket.MarketItem[]",
          "name": "",
          "type": "tuple[]"
        }
      ],
      "stateMutability": "view",
      "type": "function"
    },
    {
      "inputs": [],
      "name": "getListingPrice",
      "outputs": [
        {
          "internalType": "uint256",
          "name": "",
          "type": "uint256"
        }
      ],
      "stateMutability": "view",
      "type": "function"
    },
    {
      "inputs": [
        {
          "internalType": "address",
          "name": "nftContract",
          "type": "address"
        },
        {
          "internalType": "uint256",
          "name": "itemId",
          "type": "uint256"
        }
      ],
      "name": "removeMarketSale",
      "outputs": [],
      "stateMutability": "payable",
      "type": "function"
    },
    {
      "inputs": [
        {
          "internalType": "address",
          "name": "nftContract",
          "type": "address"
        },
        {
          "internalType": "uint256",
          "name": "itemId",
          "type": "uint256"
        },
        {
          "internalType": "address payable",
          "name": "buyer",
          "type": "address"
        }
      ],
      "name": "transferToBuyer",
      "outputs": [],
      "stateMutability": "payable",
      "type": "function"
    }
  ],
  "bytecode": "0x60806040526658d15e1762800060065534801561001b57600080fd5b506001600055600580546001600160a01b031916331790556116c6806100426000396000f3fe60806040526004361061009c5760003560e01c806378044ba51161006457806378044ba51461014c578063a17ee9281461015f578063c23b139e14610172578063d2d9b4e114610185578063d2ead4cb146101a5578063f064c32e146101c757600080fd5b80630f08efe0146100a157806312e85585146100cc5780632af505e2146100ea578063485fc31b1461011757806358eb2df514610139575b600080fd5b3480156100ad57600080fd5b506100b66101dc565b6040516100c391906114ea565b60405180910390f35b3480156100d857600080fd5b506006546040519081526020016100c3565b3480156100f657600080fd5b5061010a610105366004611423565b6103ca565b6040516100c391906115d8565b34801561012357600080fd5b506101376101323660046113d9565b61042f565b005b6101376101473660046113a4565b6104ce565b61013761015a366004611362565b610824565b61013761016d366004611336565b610997565b610137610180366004611336565b610b40565b34801561019157600080fd5b506100b66101a0366004611423565b610d2f565b3480156101b157600080fd5b506101ba610f16565b6040516100c3919061149c565b3480156101d357600080fd5b506100b6611039565b606060006101e960015490565b905060006101f660025490565b6003546102039190611604565b90506000808267ffffffffffffffff81111561022157610221611662565b60405190808252806020026020018201604052801561025a57816020015b610247611283565b81526020019060019003908161023f5790505b50905060005b848110156103c15760006007816102788460016115ec565b81526020810191909152604001600020600401546001600160a01b03161480156102cf5750600760006102ac8360016115ec565b815260208101919091526040016000206006015460ff6101009091041615156001145b156103af5760006102e18260016115ec565b6000818152600760208181526040928390208351610140810185528154815260018201546001600160a01b039081169382019390935260028201549481019490945260038101548216606085015260048101549091166080840152600581015460a0840152600681015460ff808216151560c08601526101009182900416151560e0850152918101549183019190915260088101546101208301528551929350918590879081106103945761039461164c565b60209081029190910101526103aa6001866115ec565b945050505b806103b98161161b565b915050610260565b50949350505050565b6103d26112f5565b50600090815260086020908152604091829020825160a0810184528154815260018201549281019290925260028101549282019290925260038201546001600160a01b039081166060830152600490920154909116608082015290565b61043d600480546001019055565b600061044860045490565b6040805160a08101825282815260208082019788528183019687526001600160a01b03958616606083019081529886166080830190815260009485526008909152919092209151825594516001820155925160028401555092516003820180549185166001600160a01b0319928316179055915160049091018054919093169116179055565b600260005414156104fa5760405162461bcd60e51b81526004016104f1906115a1565b60405180910390fd5b60026000558061054c5760405162461bcd60e51b815260206004820152601c60248201527f5072696365206d757374206265206174206c656173742031207765690000000060448201526064016104f1565b60065434146105a95760405162461bcd60e51b8152602060048201526024808201527f5072696365206d75737420626520657175616c20746f206c697374696e6720706044820152637269636560e01b60648201526084016104f1565b6105b7600380546001019055565b6105c5600180546001019055565b60006105d060015490565b9050604051806101400160405280828152602001856001600160a01b03168152602001848152602001336001600160a01b0316815260200160006001600160a01b031681526020018381526020016000151581526020016001151581526020014281526020016000815250600760008381526020019081526020016000206000820151816000015560208201518160010160006101000a8154816001600160a01b0302191690836001600160a01b031602179055506040820151816002015560608201518160030160006101000a8154816001600160a01b0302191690836001600160a01b0316021790555060808201518160040160006101000a8154816001600160a01b0302191690836001600160a01b0316021790555060a0820151816005015560c08201518160060160006101000a81548160ff02191690831515021790555060e08201518160060160016101000a81548160ff02191690831515021790555061010082015181600701556101208201518160080155905050836001600160a01b03166323b872dd3330866040518463ffffffff1660e01b815260040161077c93929190611478565b600060405180830381600087803b15801561079657600080fd5b505af11580156107aa573d6000803e3d6000fd5b50506040805133815260006020820181905281830187905260608201819052600160808301524260a083015260c082015290518693506001600160a01b038816925084917f6f369afbb70a4a188a6625b97a5cb95dca09619f8b987b62ae287e2879b86f37919081900360e00190a4505060016000555050565b600260005414156108475760405162461bcd60e51b81526004016104f1906115a1565b60026000818155838152600760205260409020908101546003909101546001600160a01b031633146108d85760405162461bcd60e51b815260206004820152603460248201527f4f6e6c79207468652053656c6c6572206f6620746869732070726f647563742060448201527318d85b881d1c985b9cd9995c881d1a194813919560621b60648201526084016104f1565b6040516323b872dd60e01b81526001600160a01b038516906323b872dd9061090890309086908690600401611478565b600060405180830381600087803b15801561092257600080fd5b505af1158015610936573d6000803e3d6000fd5b50505060008481526007602052604090206004810180546001600160a01b0386166001600160a01b031990911617905560068101805461ffff19166001179055426008909101555061098c600280546001019055565b505060016000555050565b600260005414156109ba5760405162461bcd60e51b81526004016104f1906115a1565b60026000818155828152600760205260409020908101546003909101546001600160a01b03163314610a425760405162461bcd60e51b815260206004820152602b60248201527f4f6e6c79207468652073656c6c6572206f662074686973206974656d2063616e60448201526a0819194b5b1a5cdd081a5d60aa1b60648201526084016104f1565b6040516323b872dd60e01b81526001600160a01b038416906323b872dd90610a7290309033908690600401611478565b600060405180830381600087803b158015610a8c57600080fd5b505af1158015610aa0573d6000803e3d6000fd5b50505050610aae600361122c565b60008281526007602081905260408083208381556001810180546001600160a01b031990811690915560028201859055600382018054821690556004820180549091169055600581018490556006808201805461ffff1916905592810184905560080183905590549051339282156108fc02929190818181858888f1935050505015801561098c573d6000803e3d6000fd5b60026000541415610b635760405162461bcd60e51b81526004016104f1906115a1565b600260008181558281526007602052604090206005810154910154348214610bf5576040805162461bcd60e51b81526020600482015260248101919091527f506c65617365207375626d6974207468652061736b696e67207072696365206960448201527f6e206f7264657220746f20636f6d706c6574652074686520707572636861736560648201526084016104f1565b6000838152600760205260408082206003015490516001600160a01b03909116913480156108fc02929091818181858888f19350505050158015610c3d573d6000803e3d6000fd5b506040516323b872dd60e01b81526001600160a01b038516906323b872dd90610c6e90309033908690600401611478565b600060405180830381600087803b158015610c8857600080fd5b505af1158015610c9c573d6000803e3d6000fd5b50505060008481526007602052604090206004810180546001600160a01b0319163317905560068101805461ffff191660011790554260089091015550610ce7600280546001019055565b6005546006546040516001600160a01b039092169181156108fc0291906000818181858888f19350505050158015610d23573d6000803e3d6000fd5b50506001600055505050565b60606000610d3c60015490565b905060008060005b83811015610d94578560076000610d5c8460016115ec565b8152602001908152602001600020600201541415610d8257610d7f6001846115ec565b92505b80610d8c8161161b565b915050610d44565b5060008267ffffffffffffffff811115610db057610db0611662565b604051908082528060200260200182016040528015610de957816020015b610dd6611283565b815260200190600190039081610dce5790505b50905060005b84811015610f0c578660076000610e078460016115ec565b8152602001908152602001600020600201541415610efa576000610e2c8260016115ec565b6000818152600760208181526040928390208351610140810185528154815260018201546001600160a01b039081169382019390935260028201549481019490945260038101548216606085015260048101549091166080840152600581015460a0840152600681015460ff808216151560c08601526101009182900416151560e085015291810154918301919091526008810154610120830152855192935091859087908110610edf57610edf61164c565b6020908102919091010152610ef56001866115ec565b945050505b80610f048161161b565b915050610def565b5095945050505050565b60606000610f2360045490565b90506000808267ffffffffffffffff811115610f4157610f41611662565b604051908082528060200260200182016040528015610f7a57816020015b610f676112f5565b815260200190600190039081610f5f5790505b50905060005b83811015611031576000610f958260016115ec565b600081815260086020908152604091829020825160a0810184528154815260018201549281019290925260028101549282019290925260038201546001600160a01b0390811660608301526004830154166080820152855192935090918590879081106110045761100461164c565b602090810291909101015261101a6001866115ec565b9450505080806110299061161b565b915050610f80565b509392505050565b6060600061104660015490565b905060008060005b838110156110a95733600760006110668460016115ec565b81526020810191909152604001600020600301546001600160a01b03161415611097576110946001846115ec565b92505b806110a18161161b565b91505061104e565b5060008267ffffffffffffffff8111156110c5576110c5611662565b6040519080825280602002602001820160405280156110fe57816020015b6110eb611283565b8152602001906001900390816110e35790505b50905060005b848110156103c157336007600061111c8460016115ec565b81526020810191909152604001600020600301546001600160a01b0316141561121a57600061114c8260016115ec565b6000818152600760208181526040928390208351610140810185528154815260018201546001600160a01b039081169382019390935260028201549481019490945260038101548216606085015260048101549091166080840152600581015460a0840152600681015460ff808216151560c08601526101009182900416151560e0850152918101549183019190915260088101546101208301528551929350918590879081106111ff576111ff61164c565b60209081029190910101526112156001866115ec565b945050505b806112248161161b565b915050611104565b80548061127b5760405162461bcd60e51b815260206004820152601b60248201527f436f756e7465723a2064656372656d656e74206f766572666c6f77000000000060448201526064016104f1565b600019019055565b6040518061014001604052806000815260200160006001600160a01b031681526020016000815260200160006001600160a01b0316815260200160006001600160a01b031681526020016000815260200160001515815260200160001515815260200160008152602001600081525090565b6040518060a0016040528060008152602001600081526020016000815260200160006001600160a01b0316815260200160006001600160a01b031681525090565b6000806040838503121561134957600080fd5b823561135481611678565b946020939093013593505050565b60008060006060848603121561137757600080fd5b833561138281611678565b925060208401359150604084013561139981611678565b809150509250925092565b6000806000606084860312156113b957600080fd5b83356113c481611678565b95602085013595506040909401359392505050565b600080600080608085870312156113ef57600080fd5b84356113fa81611678565b93506020850135925060408501359150606085013561141881611678565b939692955090935050565b60006020828403121561143557600080fd5b5035919050565b8051825260208082015190830152604080820151908301526060808201516001600160a01b039081169184019190915260809182015116910152565b6001600160a01b039384168152919092166020820152604081019190915260600190565b6020808252825182820181905260009190848201906040850190845b818110156114de576114cb83855161143c565b9284019260a092909201916001016114b8565b50909695505050505050565b602080825282518282018190526000919060409081850190868401855b8281101561159457815180518552868101516001600160a01b039081168887015286820151878701526060808301518216908701526080808301519091169086015260a0808201519086015260c08082015115159086015260e080820151151590860152610100808201519086015261012090810151908501526101409093019290850190600101611507565b5091979650505050505050565b6020808252601f908201527f5265656e7472616e637947756172643a207265656e7472616e742063616c6c00604082015260600190565b60a081016115e6828461143c565b92915050565b600082198211156115ff576115ff611636565b500190565b60008282101561161657611616611636565b500390565b600060001982141561162f5761162f611636565b5060010190565b634e487b7160e01b600052601160045260246000fd5b634e487b7160e01b600052603260045260246000fd5b634e487b7160e01b600052604160045260246000fd5b6001600160a01b038116811461168d57600080fd5b5056fea2646970667358221220d125cd8971ab585db503379246b6d8b5061f2eb722d3df7e452188be955f2b0964736f6c63430008070033",
  "linkReferences": {},
  "deployedLinkReferences": {}
}